:020000040000FA
:06000000E9EF08F0120018
:06002A000100F0110000CE
:080030001B0100001B00000091
:0800380092909296929492922C
:1000400094929494936A8090809680948092829205
:100050008294816A0F0EC16E070EB46ECA6ECC6AAE
:10006000CB680C0EBD6EBA6EBE6ABB680001090E8D
:10007000EB6FE96BE46B030EE56F800EF76FE86BD7
:10008000E76B1200060E0001FA5D14E36D50020BDF
:1000900001E012000001E75102E15BEF00F0E2DA5B
:1000A00001E0120057D9000901E11200A4DA0009A9
:1000B00001E05DD812000001E8510D0A50E0010A8C
:1000C00045E0070A3FE0010A39E0030A33E0010A8C
:1000D0002DE00F0A27E0010A1FE0030A19E0010AD8
:1000E00013E0070A0DE0010A07E0030A03E0010A32
:1000F00034E012003C0E13D0B5DA38E1E66A2AD0BB
:10010000B1DA34E1140E0BD0ADDA30E10C0E07D0C9
:10011000A9DA2CE1010E03D0A5DA28E1020EE66E81
:100120009DD919D09FDA22E14D0E13D09BDA1EE142
:10013000610E0FD097DA1AE1640E0BD093DA16E154
:10014000440E07D08FDA12E14F0E03D08BDA0EE1A6
:10015000430EE66EB0D9E5520001E82B1200606B49
:10016000616B5EDA0001010EE76FE56F12000001BE
:10017000E951630A01E1B2D0010A01E1ADD06C0A94
:100180006BE0030A5EE0010A53E0070A4EE0010A51
:1001900049E0030A44E0010A3FE00F0A3AE0010A9D
:1001A00035E0030A30E0010A2BE0070A1EE0010AED
:1001B00019E0030A15E0010A01E012006251006E25
:1001C000016AFE0E001801E1015005E062C0E6FF81
:1001D00072D9E5521200FE0E626FE85001E07CD049
:1001E00070EF01F062C0ECF077D062C0EDF062C059
:1001F000E6FFECC0E6FF91D9E552E55200016ED072
:1002000062C0EEF069D062C0EFF066D062C0F0F07C
:1002100063D062C0F1F060D062C0F2F05DD062C025
:10022000F3F05AD062C0F4F057D062C0F5F054D069
:1002300062C0F6F0EB6BE96BE5C0E4F0030EE56F2E
:1002400012006251006E016AFF0ED8800056000E47
:1002500001560050BE6E42D062C0BBFFE5C0E4F064
:10026000030EE56F3C0EE66EF9D8E552400E000134
:10027000625D02E2030E1FD0400E625D09E3FED90B
:1002800004E6800E005C000E015802E2020E13D05C
:10029000F5D904E6800E005C000E01580EE36251B1
:1002A000026E036AD890035004E6C00E025C000E92
:1002B000035803E2010EE66E08D0E0D904E6C00E52
:1002C000005C000E015803E3E66AF5D8E552000130
:1002D000E96BE4C0E5F01200E92B1200E96B1200B3
:1002E00000016251990A31E0010A2DE0090A29E072
:1002F000F70A25E03E0A1BE00F0A17E0010A15E0A5
:10030000060A1FE01E0A0FE0060A11E00F0A09E0C4
:10031000010A05E0040A1CE1F7C0BBFF06D0BB6A76
:1003200017D0020E13D0040E11D0630E0FD0010EA1
:10033000E56F800EE66E92D8E552000109D0620E9C
:1003400005D00D0E03D00E0E01D00E0EE96F120077
:10035000E96B12000001EB51090A3BE0010A30E0B1
:100360000F0A27E0010A22E0030A1DE0010A18E053
:10037000070A13E0010A0EE0030A09E0010A2AE174
:10038000080EEE03F350400FE66E68D815D0EFC0AC
:10039000E6FF11D0F0C0E6FF0ED0F1C0E6FF0BD0B3
:1003A000F2C0E6FF08D0F3C0E6FF05D0F4C0E6FFD8
:1003B00002D0F5C0E6FF7FD8E5520001EB2B000C20
:1003C000F6C0E6FF78D8E5520001EB2BE4C0E5F07B
:1003D000000C010C000C816A0001E66B93688094AC
:1003E000808200000000000080800000000000000B
:1003F00000000000000000000000000000000000FD
:10040000000081CFE6F080900000000000008086B0
:1004100000000000000000000000000000000000DC
:10042000000000000000000081500001E613936A04
:10043000809080960000000080920001E651006EDE
:10044000016AD890015004E6800E005C000E01584D
:1004500002E2000E02D0010E00D01200D9CFE6FF5A
:10046000E1CFD9FF809480920001E551030A09E0B1
:10047000010A05E0030A01E007D0808005D08086EC
:1004800003D08080808600D0FE0EDB50816E00009D
:10049000000000000000000000000000000000005C
:1004A0000000000000000000000080908096E552EF
:1004B000E7CFD9FF1200D9CFE6FFE1CFD9FF808483
:1004C000809200000000000000000001E551030AD6
:1004D00009E0010A05E0030A01E007D0808005D0A9
:1004E000808603D08080808600D0FE0EDB50816E37
:1004F00000000000000000000000000000000000FC
:1005000000000000000000008090809600000000C5
:100510008094E552E7CFD9FF1200D9CFE6FFE1CFB3
:10052000D9FFFD0EDB50040A11E0070A0CE0010AB6
:1005300005E0030A10E100017F0E02D00001BF0EAA
:10054000F96F010E07D000017F0E02D00001BF0E2F
:10055000F96F020EE56FFE0EDB500001F927F9C0BE
:10056000E6FF7CDFE55290D080D8DECF00F0DDCF13
:1005700001F0FB0EDBCF02F0FC0EDBCF03F00150ED
:100580000318E8AE02D0033404D00250005C0350DC
:10059000015817E2FD0EDBCF00F0FE0EDBCF01F0BD
:1005A000DE500024E96EDD500120EA6EEF50E66E69
:1005B00082DFE55257D8FEE1DF2A010ED6E3DB2ABF
:1005C000D4D7020EE15C02E2E16AE552E16E5CD052
:1005D000400EE66E630EE66E000EE66EC2EC03F0B1
:1005E000E552E552E552000905E000C161F0000165
:1005F000606B010C000C00016051D880615506E36E
:10060000E7DF000901E1000C0001606B6051EA6A5C
:10061000630FE96E000EEA22EFCF62F0602B010C4F
:1006200024D8DECF00F0DDCF01F0D890015004E6F1
:10063000400E005C000E01580EE2DECFE9FFDDCF78
:10064000EAFF630EE926000EEA22EF6ADF2A010EB6
:10065000E8E3DB2AE6D7020EE15C02E2E16AE5525A
:10066000E16E12D0B8DE00091200D9CFE6FFE1CF6B
:10067000D9FF020EE126DE6ADD6A12006251006EC9
:10068000016AD89001501200E552E7CFD9FF12005D
:10069000040120511F0B010801E012002051600BE2
:1006A000E842E842E842E842E842010801E012007C
:1006B000245103E0240501E012002151230A39E00E
:1006C000010A33E0030A25E0010A1CE0240A31E0B4
:1006D000070A2FE0010A2DE0030A0EE0010A01E0FB
:1006E00012004ED90101130E426F010E436F00013B
:1006F000FB930101080E17D043D90101130E446F7B
:10070000010E05D03DD90101080E446F010E456F61
:10071000120036D90101080E426F010E436F00012D
:10072000FB930101070E466F12002AD922C40FF174
:10073000120012000101086BC20E096F010E0A6F50
:100740000B6B0C6B0D6B080E0E6F016B006B1A0EB2
:10075000726E1E0E736E0401000E166F050E176F7B
:10076000400E146F0401196F080E1A6F050E1B6FEF
:10077000880E186F0401480E1E6F050E1F6F400E85
:100780001C6F1200D9CFE6FFE1CFD9FF0101006B4A
:10079000040118BF30D0FC0EDBCF00F01951D88017
:1007A000005403E2FC0E19C4DBFF0101006BFC0ED8
:1007B000DB50005D19E20051EA6A080FE96E050E90
:1007C000EA22EF50E66E0051E76EFD0EDBCFE9FF47
:1007D000FE0EDBCFEAFFE750E926000EEA22E552E3
:1007E000E750EF6E002BE3D70401400E196F181786
:1007F000187D880E181301010051E552E7CFD9FF8B
:100800001200ACD80101015114E1DF6AB2D802E153
:1008100001500BE0FD0EDBCFE9FFDB2AFE0EDBCF44
:10082000EAFF01E3DB2AEF50F1E175D8076B010E17
:10083000016F9AD093D80101015115E1DF6A99D86F
:1008400002E101500CE0FD0EDBCFF6FFDB2AFE0ECD
:10085000DBCFF7FF01E3DB2A0800F550F0E15BD8BE
:10086000010E076F016F80D079D804011CBF52D0F0
:10087000030E0101015D01E1016B01514BE0020E2C
:10088000015D03E104011D6B3CD001053DE1400E1B
:10089000006E016A0651005C000E015803E2400E32
:1008A000DF6E02D006C1DFFFDFCF1DF4DF50065D33
:1008B000066F480E046F050E056F07050AE1DF504D
:1008C00011E002C1F6FF03C1F7FF0800F5503AD866
:1008D000F6D7DF5007E002C1E9FF03C1EAFFEF509E
:1008E00031D8F7D7010106510FE104011D51006E07
:1008F000016A400E001805E1015003E10101020EFA
:1009000002D00101030E016F400E04011C171C7D73
:10091000880E1C1329D0DF50006E016AD950FD0FDC
:10092000E96EFF0EDA20EA6E0050EE5E0150ED5ADD
:10093000FD0EDBCF02F1FE0EDBCF03F1DFCF06F1C0
:100940000101120004C1E9FF05C1EAFFEF6E042BAB
:10095000000E0523022B0323DF061200D9CFE6FF8A
:10096000E1CFD9FFE6521200E552E552E7CFD9FFB9
:100970001200DF2ADF50006E016AFF0E001812001D
:080980000101030E416F12009A
:080988006C5002E0000E01D0EA
:10099000010E00090BE0040100513C0BE842E84263
:1009A0000D0802E1DFEF04F011EF05F06C5002E0FA
:1009B000000E01D0010E040901E042D81200D9CF87
:1009C000E6FFE1CFD9FFE6520101406B416B466B78
:1009D000476B13EC06F0DF6ADF50006E016A010E10
:1009E000005C000E01581AE20101415117E1F76A5B
:1009F000DF34FE0BF736F66EE30EF626100EF72206
:100A00000900F5CF00F00800F5CF01F004D001C0D7
:100A1000FAFF0050F96EFBDFDF2ADED799D8E552E6
:100A2000F6D0020E0101405D09E168D8040100BD65
:100A300002D0C80E01D0880E006F1200E1EF05F061
:100A4000040E0001FA5D09E122C46EFF6E50000839
:100A500002E2050E01D0030EFA6F0101400509E123
:100A60000AD8040104BD02D0C80E01D0880E046F5C
:100A70001200E1EF05F0C4D80101080E465D000E3A
:100A8000475905E246C1DEFF47C1DDFF03D0080E2E
:100A9000DE6EDD6A040104930491010EDB50041341
:100AA000DFCF05F4000EDB500101465F010EDB5085
:100AB000475B280E446F040E456F0001FBA30CD06A
:100AC00098D815E042C1F6FF43C1F7FF0800F55082
:100AD00080D8F6E2DB06F4D78CD809E042C1E9FF02
:100AE00043C1EAFFEF5075D8F7E2DB06F5D7020EF7
:100AF000E15C02E2E16AE552E16E89D081D8030E41
:100B000004010015E76E010EE7CFDBFF01C4DFFF34
:100B1000DE5001014627DD504723280E426F040EA8
:100B2000436F67D80EE042C1E9FF43C1EAFFEF50CF
:100B300044C1E9FF45C1EAFFEF6E6DD8F2E2DB0682
:100B4000F0D7020EE15C02E2E16AE552E16E5FD0AD
:100B50000101415105E145D8840E006F04011DD00B
:100B6000040120AF1CD0010146510401265D0101A2
:100B700047510401275904E226C446F127C447F12E
:100B80007ADF0101010E406F2CD8800E006F040146
:100B9000280E066F040E076FC80E046F10D00101F7
:100BA000020E406F0401056BC80E046F0401080EAD
:100BB000016F280E026F040E036FC80E006F6D9850
:100BC00012000101406B0DD8880E006F0401046B08
:100BD000120044C1E9FF45C1EAFFEF6E01010BEFCE
:100BE00006F00401080E016F200E026F040E036F61
:100BF0001200D9CFE9FFDACFEAFFEE50ED10120074
:100C0000D9CFE6FFE1CFD9FF020EE1261200E5526F
:100C1000E7CFD9FF1200442B000E4523422B43237C
:060C2000DF06010E1200C8
:0A0C260004012051600BE842E8428F
:100C3000E842E842E842000901E012002151070AB7
:100C400040E00B0A3EE0070A33E0010A23E00B0A0A
:100C50001FE0020A1DE0030A19E0080A10E0010A79
:100C60000CE00F0A08E0030A01E0120012D90001AB
:100C7000040EFA6F120062EF06F099EF06F009D940
:100C80000101FC0E426F000E436F0CD0B4EF06F072
:100C9000E6EF06F002D90101426F436BFD0E4227D9
:100CA000000E43230001FB930101010E466F120069
:100CB000F4D8EA6AFD0FE96E000EEA2222C4EFFFC3
:100CC00012001200800E0401205D32E12351030A5C
:100CD0001FE0010A0AE0030A29E1DBD80101180E2E
:100CE000426F100E436F120E1ED0ADD8D90EF626ED
:100CF000100EBBD8020E0101F76A4225F66E435171
:100D0000F7220900F5CF46F10A00F5CF47F10ED0E2
:100D10009AD8DD0EF626100EA8D842C1F6FF43C1C0
:100D2000F7FF0800F5500101466F476B0001FB8398
:100D30001200AFD80F0EE66E710EE66E0F0E9DD844
:100D4000010EE66EFD0EE66E000E97D822C4FCF092
:100D50000401225104E10001050EFA6F12000001A6
:100D6000060EFA6F9AEF03F00401286B296B040159
:100D700020511F0B020A0FE0030A0BE0010A18E1E1
:100D800088D8040128810001FBA112D00401288326
:100D90000FD07FD80DD04BD801E0010E5DD844C1F3
:100DA000E9FFEA6EEF50040B03E00401010E286F27
:100DB000010141050AE10101280E426F040E436F53
:100DC0000001FB930101020E466F1200040122058F
:100DD0000EE120511F0B00090AE15BD8030E04014C
:100DE000215D03E10001FB8102D00001FB910401C0
:100DF00022511CE120511F0B020818E124510F0B56
:100E0000000914E014D801E0010E26D8030E0401F5
:100E1000215D04E1840E38D8EF6E120024AF03D0B8
:100E200033D8EF6A1200880E2FD8EF6E120035D833
:100E30000F0B080DF350016A000F006E040E012223
:100E40002451800B120025D804012251F66EF76A56
:100E5000D890F636F7361200040DF3500101002445
:100E6000446F000E0120456F1200F7220900F5CFF4
:100E700042F10A00F5CF43F11200E66EF7EC07F0FD
:100E8000E552E552E552120044C1E9FF45C1EAFFCF
:100E900012000101010E416F1200FBDF0401245119
:020EA00012003E
:0E0EA2006DA60CD80001FA0508E16DBA06D065
:100EB000686A696A69806988020EFA6F12006D6A51
:100EC000696A6D860001010EFA6F12006D6A696A27
:100ED0000001FA6B120066EF07F00001FA5101E120
:100EE00012006850040B04E06950040B01E03CD888
:100EF0006DB212006850010B04E06950010B01E073
:100F000054D86850100B04E06950100B01E024D84D
:100F10006850400B04E06950400B01E03BD868503A
:100F2000200B04E06950200B01E036D86850020B1A
:100F300004E06950020B01E036D8030E0001FA5DAF
:100F400001E212006850080B06E06950080B03E04C
:100F5000C4EC04F068961200698468986D82A19AC6
:100F6000A08A0300A09A12006D92699468941200FE
:100F70000001FBA10ED0F8DF6D840001080EFE6FAA
:100F8000070EFF6FFE07000EFF5BFE51FF11FAE137
:100F90006D941200689C120070A003D0E1EC05F083
:100FA0007090689A1200689212006A6A686A9F0ECE
:100FB0006B6E7B0E696E6E6A0F0EE66E710EE66EDC
:100FC0000F0EE66E14D8E552E552E552160E706E1D
:100FD00068A602D06896FCD76D98E1EC05F0000198
:100FE000FB910001FC6B0001030EFA6F1200D9CFD8
:100FF000E6FFE1CFD9FFFD0EDBCFE9FFFE0EDBCF31
:10100000EAFFFC0EDB5004E0EE6AFC0EDB06F9D7CB
:08101000E552E7CFD9FF120001
:081018001201000202000008B1
:10102000D8040A0000000102000109024300020185
:1010300000803209040000010202010005240010B2
:101040000104240202052406000105240100010711
:1010500005820308000209040100020A00000007DB
:101060000503024000000705830240000004030955
:101070000434034D006900630072006F0063006870
:101080000069007000200054006500630068006E75
:10109000006F006C006F0067007900200049006E4F
:1010A0000063002E0034034300440043002000523C
:1010B0000053002D00320033003200200045006D47
:1010C0000075006C006100740069006F006E002004
:1010D00000440065006D006F002A102A106D107129
:0510E00010A5109006B0
:0A10E6002A0EF66E000EF76E000EE3
:1010F000F86E01010900F5503B6F0900F5503C6F97
:1011000003E13B6701D03DD00900F550366F09007F
:10111000F550376F0900F550386F09000900F55098
:10112000E96E0900F550EA6E090009000900F55062
:10113000396F0900F5503A6F09000900F6CF3DF10B
:10114000F7CF3EF1F8CF3FF136C1F6FF37C1F7FFD9
:1011500038C1F8FF0101395302E13A5307E00900B1
:10116000F550EE6E3907F8E23A07F9D73DC1F6FFC0
:101170003EC1F7FF3FC1F8FF01013B07000E3C5B9A
:04118000BFD71200C3
:0C11840004D80FD842EC00F0FCD70F0E8E
:10119000C112140E6F6E0001FA6B0001FB6B0001AF
:1011A000FC6B1CEF00F051EC07F06DEC07F034EF36
:0211B00004F049
:0E11B200000EF36E00EE00F0080E01D81200E1
:1011C000EA6002D0EE6AFCD7F350E9601200EE6AE2
:0211D000FCD74A
:0E11D20013EE00F023EE00F0F86A059C73ECBB
:0E11E00008F0F7EC08F0C2EC08F0FBD71200A4
:0211EE001200ED
:1011F0002020202020202020202020202A2A4C438C
:0B1200004420534D41525449452A2A16
:020000040030CA
:0100000021DE
:010001000EF0
:0100020038C5
:010003001EDE
:010005008179
:010006008079
:010008000FE8
:01000900C036
:01000A000FE6
:01000B00E014
:01000C000FE4
:01000D0040B2
:00000001FF
