:020000040000FA
:060000007FEF08F0120082
:02002A000000D4
:04002C009290929686
:100030009294929294929494936A809080968094F1
:10004000809282928294816A0F0EC16E070EB46E06
:10005000CA6ECC6ACB680C0EBD6EBA6EBE6ABB6847
:100060000001090EEB6FE96BE46B030EE56F800E88
:10007000F76FE86BE76B1200060E0001FA5D14E300
:100080006D50020B01E012000001E75102E155EF53
:1000900000F08BDA01E0120053D9000901E11200EF
:1000A0006FDA000901E059D812000001E8510D0A89
:1000B00050E0010A45E0070A3FE0010A39E0030A7F
:1000C00033E0010A2DE00F0A27E0010A1FE0030ACE
:1000D00019E0010A13E0070A0DE0010A07E0030A2C
:1000E00003E0010A34E012003C0E13D05EDA34E182
:1000F000E66A2AD05ADA30E1140E0BD056DA2CE137
:100100000C0E07D052DA28E1010E03D04EDA24E1BA
:10011000020EE66E99D919D048DA1EE14D0E13D0C1
:1001200044DA1AE1610E0FD040DA16E1640E0BD00A
:100130003CDA12E1440E07D038DA0EE14F0E03D05C
:1001400034DA0AE1430EE66EACD9E5520001E82B41
:100150001200010EE76FE56F12000001E951630A1A
:1001600001E1B2D0010A01E1ADD06C0A6BE0030AF3
:100170005EE0010A53E0070A4EE0010A49E0030A83
:1001800044E0010A3FE00F0A3AE0010A35E0030AC1
:1001900030E0010A2BE0070A1EE0010A19E0030A19
:1001A00015E0010A01E012006251006E016AFE0EC4
:1001B000001801E1015005E062C0E6FF72D9E55286
:1001C0001200FE0E626FE85001E07CD066EF01F095
:1001D00062C0ECF077D062C0EDF062C0E6FFECC028
:1001E000E6FF91D9E552E55200016ED062C0EEF013
:1001F00069D062C0EFF066D062C0F0F063D062C038
:10020000F1F060D062C0F2F05DD062C0F3F05AD07D
:1002100062C0F4F057D062C0F5F054D062C0F6F07E
:10022000EB6BE96BE5C0E4F0030EE56F1200625181
:10023000006E016AFF0ED8800056000E0156005075
:10024000BE6E42D062C0BBFFE5C0E4F0030EE56FB6
:100250003C0EE66EF9D8E552400E0001625D02E206
:10026000030E1FD0400E625D09E3A2D904E6800EA2
:10027000005C000E015802E2020E13D099D904E688
:10028000800E005C000E01580EE36251026E036A9C
:10029000D890035004E6C00E025C000E035803E23F
:1002A000010EE66E08D084D904E6C00E005C000E94
:1002B000015803E3E66AF5D8E5520001E96BE4C0B2
:1002C000E5F01200E92B1200E96B12000001625107
:1002D000990A31E0010A2DE0090A29E0F70A25E030
:1002E0003E0A1BE00F0A17E0010A15E0060A1FE0AC
:1002F0001E0A0FE0060A11E00F0A09E0010A05E0F4
:10030000040A1CE1F7C0BBFF06D0BB6A17D0020E7F
:1003100013D0040E11D0630E0FD0010EE56F800EC6
:10032000E66E92D8E552000109D0620E05D00D0E9E
:1003300003D00E0E01D00E0EE96F1200E96B120011
:100340000001EB51090A3BE0010A30E00F0A27E007
:10035000010A22E0030A1DE0010A18E0070A13E07F
:10036000010A0EE0030A09E0010A2AE1080EEE0381
:10037000F350400FE66E68D815D0EFC0E6FF11D0FD
:10038000F0C0E6FF0ED0F1C0E6FF0BD0F2C0E6FFF2
:1003900008D0F3C0E6FF05D0F4C0E6FF02D0F5C0F8
:1003A000E6FF7FD8E5520001EB2B000CF6C0E6FF1C
:1003B00078D8E5520001EB2BE4C0E5F0000C010C0D
:1003C000000C816A0001E66B9368809480820000D3
:1003D000000000008080000000000000000000001D
:1003E000000000000000000000000000000081CFBD
:1003F000E6F0809000000000000080860000000011
:1004000000000000000000000000000000000000EC
:100410000000000081500001E613936A80908096EE
:100420000000000080920001E651006E016AD89041
:10043000015004E6800E005C000E015802E2000E3E
:1004400002D0010E00D01200D9CFE6FFE1CFD9FFD4
:10045000809480920001E551030A09E0010A05E059
:10046000030A01E007D0808005D0808603D0808019
:10047000808600D0FE0EDB50816E00000000000080
:10048000000000000000000000000000000000006C
:1004900000000000000080908096E552E7CFD9FF71
:1004A0001200D9CFE6FFE1CFD9FF8084809200000F
:1004B0000000000000000001E551030A09E0010A04
:1004C00005E0030A01E007D0808005D0808603D0D4
:1004D0008080808600D0FE0EDB50816E0000000020
:1004E000000000000000000000000000000000000C
:1004F0000000000080908096000000008094E5528B
:10050000E7CFD9FF1200D9CFE6FFE1CFD9FFFD0E2B
:10051000DB50040A11E0070A0CE0010A05E0030AB7
:1005200010E100017F0E02D00001BF0EF96F010E35
:1005300007D000017F0E02D00001BF0EF96F020E3E
:10054000E56FFE0EDB500001F927F9C0E6FF7CDF06
:10055000E552E552E7CFD9FF1200400EE66E630E7A
:10056000E66E000EE66E58EC03F0E552E552E552F9
:10057000000905E000C161F00001606B010C000C96
:1005800000016051D880615506E3E7DF000901E111
:10059000000C0001606B6051EA6A630FE96E000EA7
:1005A000EA22EFCF62F0602B010C0BDF0009120092
:0C05B0006251006E016AD89001501200E8
:0405BC0004012051C5
:1005C0001F0B010801E012002051600BE842E842D5
:1005D000E842E842E842010801E01200245103E049
:1005E000240501E012002151230A39E0010A33E019
:1005F000030A25E0010A1CE0240A31E0070A2FE083
:10060000010A2DE0030A0EE0010A01E012004ED9B2
:100610000101130E276F010E286F0001FB930101EA
:10062000080E17D043D90101130E296F010E05D012
:100630003DD90101080E296F010E2A6F120036D92B
:100640000101080E276F010E286F0001FB930101C5
:10065000070E2B6F12002AD922C40FF112001200CC
:100660000101086BC20E096F010E0A6F0B6B0C6B58
:100670000D6B080E0E6F016B006B1A0E726E1E0E64
:10068000736E0401000E166F050E176F400E146F87
:100690000401196F080E1A6F050E1B6F880E186F74
:1006A0000401480E1E6F050E1F6F400E1C6F1200D6
:1006B000D9CFE6FFE1CFD9FF0101006B040118BFDC
:1006C00030D0FC0EDBCF00F01951D880005403E28B
:1006D000FC0E19C4DBFF0101006BFC0EDB50005D5A
:1006E00019E20051EA6A080FE96E050EEA22EF509E
:1006F000E66E0051E76EFD0EDBCFE9FFFE0EDBCFAD
:10070000EAFFE750E926000EEA22E552E750EF6ED5
:10071000002BE3D70401400E196F1817187D880EBF
:10072000181301010051E552E7CFD9FF1200ACD8F0
:100730000101015114E1DF6AB2D802E101500BE07E
:10074000FD0EDBCFE9FFDB2AFE0EDBCFEAFF01E384
:10075000DB2AEF50F1E175D8076B010E016F9AD0DB
:1007600093D80101015115E1DF6A99D802E10150E6
:100770000CE0FD0EDBCFF6FFDB2AFE0EDBCFF7FF32
:1007800001E3DB2A0800F550F0E15BD8010E076FAA
:10079000016F80D079D804011CBF52D0030E010133
:1007A000015D01E1016B01514BE0020E015D03E1CE
:1007B00004011D6B3CD001053DE1400E006E016A55
:1007C0000651005C000E015803E2400EDF6E02D0BD
:1007D00006C1DFFFDFCF1DF4DF50065D066F480E58
:1007E000046F050E056F07050AE1DF5011E002C135
:1007F000F6FF03C1F7FF0800F5503AD8F6D7DF50EF
:1008000007E002C1E9FF03C1EAFFEF5031D8F7D793
:10081000010106510FE104011D51006E016A400EF5
:10082000001805E1015003E10101020E02D00101AF
:10083000030E016F400E04011C171C7D880E1C1353
:1008400029D0DF50006E016AD950FD0FE96EFF0E0E
:10085000DA20EA6E0050EE5E0150ED5AFD0EDBCF5D
:1008600002F1FE0EDBCF03F1DFCF06F10101120032
:1008700004C1E9FF05C1EAFFEF6E042B000E05235A
:10088000022B0323DF061200D9CFE6FFE1CFD9FF09
:10089000E6521200E552E552E7CFD9FF1200DF2AF7
:1008A000DF50006E016AFF0E001812000101030EF6
:0408B000266F12009D
:0C08B4006C5002E0000E01D0010E0009A3
:1008C0000BE0040100513C0BE842E8420D0802E154
:1008D00075EF04F0A7EF04F06C5002E0000E01D0B9
:1008E000010E040901E042D81200D9CFE6FFE1CFA2
:1008F000D9FFE6520101256B266B2B6B2C6BA9EC03
:1009000005F0DF6ADF50006E016A010E005C000E28
:1009100001581AE20101265117E1F76ADF34FE0B94
:10092000F736F66E0F0EF626100EF7220900F5CFF9
:1009300000F00800F5CF01F004D001C0FAFF00502C
:10094000F96EFBDFDF2ADED799D8E552F6D0020E2A
:100950000101255D09E168D8040100BD02D0C80E7F
:1009600001D0880E006F120077EF05F0040E000131
:10097000FA5D09E122C46EFF6E50000802E2050E26
:1009800001D0030EFA6F0101250509E10AD804011F
:1009900004BD02D0C80E01D0880E046F120077EF9C
:1009A00005F0C4D80101080E2B5D000E2C5905E29C
:1009B0002BC1DEFF2CC1DDFF03D0080EDE6EDD6A29
:1009C000040104930491010EDB500413DFCF05F4FE
:1009D000000EDB5001012B5F010EDB502C5B280E5B
:1009E000296F040E2A6F0001FBA30CD098D815E0E4
:1009F00027C1F6FF28C1F7FF0800F55080D8F6E2BE
:100A0000DB06F4D78CD809E027C1E9FF28C1EAFF4B
:100A1000EF5075D8F7E2DB06F5D7020EE15C02E293
:100A2000E16AE552E16E89D081D8030E0401001518
:100A3000E76E010EE7CFDBFF01C4DFFFDE500101EF
:100A40002B27DD502C23280E276F040E286F67D824
:100A50000EE027C1E9FF28C1EAFFEF5029C1E9FFF5
:100A60002AC1EAFFEF6E6DD8F2E2DB06F0D7020E84
:100A7000E15C02E2E16AE552E16E5FD001012651DC
:100A800005E145D8840E006F04011DD0040120AF9C
:100A90001CD001012B510401265D01012C510401E0
:100AA000275904E226C42BF127C42CF17ADF010177
:100AB000010E256F2CD8800E006F0401280E066FE2
:100AC000040E076FC80E046F10D00101020E256FCF
:100AD0000401056BC80E046F0401080E016F280E97
:100AE000026F040E036FC80E006F6D9812000101B3
:100AF000256B0DD8880E006F0401046B120029C10C
:100B0000E9FF2AC1EAFFEF6E0101A1EF05F0040140
:100B1000080E016F200E026F040E036F1200D9CF72
:100B2000E9FFDACFEAFFEE50ED101200D9CFE6FF71
:100B3000E1CFD9FF020EE1261200E552E7CFD9FF3F
:100B40001200292B000E2A23272B2823DF06010E53
:020B5000120091
:0E0B520004012051600BE842E842E842E8420C
:100B6000E842000901E012002151070A40E00B0AA7
:100B70003EE0070A33E0010A23E00B0A1FE0020A05
:100B80001DE0030A19E0080A10E0010A0CE00F0A50
:100B900008E0030A01E0120012D90001040EFA6F06
:100BA0001200F8EF05F02FEF06F009D90101FC0E55
:100BB000276F000E286F0CD04AEF06F07CEF06F08E
:100BC00002D90101276F286BFD0E2727000E28236D
:100BD0000001FB930101010E2B6F1200F4D8EA6AA9
:100BE000FD0FE96E000EEA2222C4EFFF1200120090
:100BF000800E0401205D32E12351030A1FE0010A47
:100C00000AE0030A29E1DBD80101440E276F0F0E29
:100C1000286F120E1ED0ADD8050EF626100EBBD8CA
:100C2000020E0101F76A2725F66E2851F722090006
:100C3000F5CF2BF10A00F5CF2CF10ED09AD8090E82
:100C4000F626100EA8D827C1F6FF28C1F7FF080026
:100C5000F55001012B6F2C6B0001FB831200AFD804
:100C60000F0EE66E710EE66E0F0E9DD8010EE66E4B
:100C7000FD0EE66E000E97D822C4FCF0040122514E
:100C800004E10001050EFA6F12000001060EFA6F72
:100C900030EF03F00401286B296B040120511F0B76
:100CA000020A0FE0030A0BE0010A18E188D80401E8
:100CB00028810001FBA112D0040128830FD07FD826
:100CC0000DD04BD801E0010E5DD829C1E9FFEA6ED5
:100CD000EF50040B03E00401010E286F010126050B
:100CE0000AE10101280E276F040E286F0001FB9313
:100CF0000101020E2B6F1200040122050EE12051AA
:100D00001F0B00090AE15BD8030E0401215D03E11A
:100D10000001FB8102D00001FB91040122511CE182
:100D200020511F0B020818E124510F0B000914E099
:100D300014D801E0010E26D8030E0401215D04E160
:100D4000840E38D8EF6E120024AF03D033D8EF6A88
:100D50001200880E2FD8EF6E120035D80F0B080D39
:100D6000F350016A000F006E040E01222451800B23
:100D7000120025D804012251F66EF76AD890F63693
:100D8000F7361200040DF35001010024296F000E04
:100D900001202A6F1200F7220900F5CF27F10A007F
:100DA000F5CF28F11200E66E8DEC07F0E552E55222
:100DB000E552120029C1E9FF2AC1EAFF1200010130
:0E0DC000010E266F1200FBDF04012451120009
:020DCE006DA610
:100DD0000CD80001FA0508E16DBA06D0686A696AA4
:100DE00069806988020EFA6F12006D6A696A6D8601
:100DF0000001010EFA6F12006D6A696A0001FA6B58
:100E00001200FCEF06F00001FA5101E112006850F7
:100E1000040B04E06950040B01E03CD86DB21200F1
:100E20006850010B04E06950010B01E054D8685090
:100E3000100B04E06950100B01E024D86850400BFF
:100E400004E06950400B01E03BD86850200B04E0FF
:100E50006950200B01E036D86850020B04E069505D
:100E6000020B01E036D8030E0001FA5D01E2120028
:100E70006850080B06E06950080B03E05AEC04F0D8
:100E800068961200698468986D82A19AA08A03000E
:100E9000A09A12006D926994689412000001FBA15F
:100EA0000ED0F8DF6D840001080EFE6F070EFF6F95
:100EB000FE07000EFF5BFE51FF11FAE16D94120078
:100EC000689C120070A003D077EC05F07090689ACF
:100ED0001200689212006A6A686A9F0E6B6E7B0E3F
:100EE000696E6E6A0F0EE66E710EE66E0F0EE66E9E
:100EF00014D8E552E552E552160E706E68A602D07F
:100F00006896FCD76D9877EC05F00001FB91000125
:100F1000FC6B0001030EFA6F1200D9CFE6FFE1CFA0
:100F2000D9FFFD0EDBCFE9FFFE0EDBCFEAFFFC0EA3
:100F3000DB5004E0EE6AFC0EDB06F9D7E552E7CFA2
:040F4000D9FF1200C3
:0C0F44001201000202000008D8040A009C
:100F50000000010200010902430002010080320981
:100F60000400000102020100052400100104240213
:100F7000020524060001052401000107058203087B
:100F8000000209040100020A0000000705030240F4
:100F90000000070583024000000403090434034DE8
:100FA000006900630072006F0063006800690070F0
:100FB00000200054006500630068006E006F006C44
:100FC000006F0067007900200049006E0063002E6A
:100FD0000034034300440043002000520053002D1E
:100FE00000320033003200200045006D0075006CB7
:100FF000006100740069006F006E0020004400650D
:10100000006D006F00560F560F990F9D0FD10FBC4A
:0110100005DA
:0E1012002A0EF66E000EF76E000EF86E01014B
:101020000900F550206F0900F550216F03E120679A
:1010300001D03DD00900F5501B6F0900F5501C6F21
:101040000900F5501D6F09000900F550E96E09000F
:10105000F550EA6E090009000900F5501E6F0900FD
:10106000F5501F6F09000900F6CF22F1F7CF23F1E9
:10107000F8CF24F11BC1F6FF1CC1F7FF1DC1F8FF1B
:1010800001011E5302E11F5307E00900F550EE6E07
:101090001E07F8E21F07F9D722C1F6FF23C1F7FFA9
:1010A00024C1F8FF01012007000E215BBFD7120009
:1010B00004D80FD83CEC00F0FCD70F0EC112140E70
:1010C0006F6E0001FA6B0001FB6B0001FC6B16EF09
:0E10D00000F0E7EC06F003EC07F0CAEF03F0C7
:0210DE00000E02
:1010E000F36E00EE00F0080E01D81200EA6002D0A4
:0E10F000EE6AFCD7F350E9601200EE6AFCD7FE
:0210FE0013EEEF
:1011000000F023EE00F0F86A059C09EC08F08DEC85
:0A11100008F058EC08F0FBD71200BD
:02111A001200C1
:020000040030CA
:0100000021DE
:010001000EF0
:0100020038C5
:010003001EDE
:010005008179
:010006008079
:010008000FE8
:01000900C036
:01000A000FE6
:01000B00E014
:01000C000FE4
:01000D0040B2
:00000001FF
