:020000040000FA
:10000000ADEF08F01200FFFFFFFFFFFFFFFFFFFF54
:10001000FFFFFFFFFFFFFFFFFFFFFFFFFFFFFFFFF0
:10002000FFFFFFFFFFFFFFFFFFFF0100591100006F
:100030002401000001000000040120511F0B0108F1
:1000400001E05BD02051600BE842E842E842E84220
:10005000E842010801E051D0245103E0240501E009
:100060004CD02151230A48E0010A40E0030A30E065
:10007000010A25E0240A22E0070A1FE0010A1CE029
:10008000030A11E0010A01E038D00101030E176FE5
:100090000101F70E186F000E196F01011F93010186
:1000A000080E1C6F2AD00101030E176F0101F70E15
:1000B0001A6F000E1B6F21D020D01FD01ED001015F
:1000C000030E176F0101EC0E1A6F000E1B6F15D097
:1000D0000101030E176F0101EC0E186F000E196F6E
:1000E00001011F930101070E1C6F07D00101030ED0
:1000F000176F22C4F3F001D000D012000001EC6BA6
:10010000C20EED6F010EEE6FEF6BF06BF16B080E30
:10011000F26FE56BE46B1A0E726E1E0E736E0401C5
:10012000000E166F050E176F400E146F0401196F45
:10013000080E1A6F050E1B6F880E186F0401480E0B
:100140001E6F050E1F6F400E1C6F1200D9CFE6FF09
:10015000E1CFD9FF0001E46B040118BF30D0FC0EE1
:10016000DBCF10F01951D880105403E2FC0E19C4F3
:10017000DBFF0001E46BFC0EDB50E45D19E2E451AF
:10018000EA6A080FE96E050EEA22EF50E66EE451C6
:10019000E76EFD0EDBCFE9FFFE0EDBCFEAFFE75097
:1001A000E926000EEA22E552E750EF6EE42BE3D792
:1001B0000401400E196F1817187D880E18130001DE
:1001C000E45100D0E552E7CFD9FF1200D9CFE6FFC6
:1001D000E1CFD9FFE6520001E55101E02FD0DF6AFF
:1001E000DF2ADF50106E116AFF0E101801E1115066
:1001F00001E10BD0FD0EDBCFE9FFDB2AFE0EDBCFEA
:10020000EAFF01E3DB2AEF50EBE1DF50106E116AE9
:10021000D950FD0FE96EFF0EDA20EA6E1050EE5E47
:100220001150ED5AFD0EDBCFE6F0FE0EDBCFE7F00E
:10023000DFCFEAF00001EB6B010EE56FE552E5520E
:10024000E7CFD9FF1200D9CFE6FFE1CFD9FFE652C1
:100250000001E55101E030D0DF6ADF2ADF50106E87
:10026000116AFF0E101801E1115001E10CD0FD0ED2
:10027000DBCFF6FFDB2AFE0EDBCFF7FF01E3DB2A45
:100280000800F550EAE1DF50106E116AD950FD0FF9
:10029000E96EFF0EDA20EA6E1050EE5E1150ED5A54
:1002A000FD0EDBCFE6F0FE0EDBCFE7F0DFCFEAF0AE
:1002B0000001010EEB6FE56FE552E552E7CFD9FF84
:1002C0001200D9CFE6FFE1CFD9FFE65204011CBFEF
:1002D0006BD0030E0001E55D01E1E56BE55101E145
:1002E00063D0020EE55D06E104011D6B0001030E03
:1002F000E56F54D0E50552E1400E106E116AEA51E7
:10030000105C000E115803E2400EDF6E02D0EAC00E
:10031000DFFFDFCF1DF4DF50EA5DEA6F480EE86FC4
:10032000050EE96FEB0515E1DF5012E0E6C0F6FFC0
:10033000E7C0F7FF0800F550E8C0E9FFE9C0EAFFB1
:10034000EF6EE82B000EE923E62BE723DF06ECD760
:1003500013D0DF5011E0E6C0E9FFE7C0EAFFEF503D
:10036000E8C0E9FFE9C0EAFFEF6EE82B000EE923E1
:10037000E62BE723DF06EDD7EA5110E104011D511A
:10038000106E116A400E101801E1115004E10001D5
:10039000020EE56F03D00001030EE56F400E04016D
:1003A0001C171C7D880E1C13E552E552E7CFD9FFC0
:1003B000120004012051600BE842E842E842E842A2
:1003C000E842000901E055D02151070A51E00B0A2B
:1003D0004FE0070A40E0010A2CE00B0A28E0020A7D
:1003E00026E0030A22E0080A12E0010A0EE00F0AE2
:1003F0000AE0030A01E03CD00001010E176F010181
:10040000040E1E6F36D036D834D090D832D00101C9
:10041000010E176F0101200E186F010E196F0101F7
:100420001F930101010E1C6F24D0A8D822D0F6D84A
:1004300020D00101010E176F040124510101186F32
:10044000196B210E1827010E192301011F930101B9
:10045000010E1C6F0ED00101010E176F0401245113
:10046000EA6A210FE96E010EEA2222C4EFFF01D0F1
:1004700000D01200800E0401205D57E12351030AD1
:1004800034E0010A10E0030A01E04DD00101010E41
:10049000176F01012E0E186F0E0E196F120E01014B
:1004A0001C6F1D6B40D00101010E176F040122511A
:1004B000F66EF76AD890F636F736EF0EF6260E0E81
:1004C000F7220900F5CF18F10A00F5CF19F1020E55
:1004D0000101F76A1825F66E1951F7220900F5CFC8
:1004E0001CF10A00F5CF1DF11ED00101010E176F9E
:1004F00004012251F66EF76AD890F636F736F30EFD
:10050000F6260E0EF7220900F5CF18F10A00F5CFF6
:1005100019F118C1F6FF19C1F7FF0800F5500101E4
:100520001C6F1D6B00D001011F8312000101010E21
:10053000176F0F0EE66E710EE66E0F0EE66E56EC3E
:1005400006F0E552E552E552010EE66E210EE66E2A
:10055000010EE66E56EC06F0E552E552E55222C475
:1005600020F10401225104E10101050E1E6F05D0A6
:100570000101060E1E6F7EEC00F012000401286BD4
:10058000296B040120511F0B020A16E0030A10E038
:10059000010A01E035D00101010E176F80A402D0DD
:1005A0000401288101011FA102D00401288328D061
:1005B0000101010E176F24D00101010E176F040114
:1005C00024510F0B080DF350116A000F106E040E2A
:1005D00011222451800B01E0010E040DF3500101A2
:1005E00010241A6F000E11201B6F1AC1E9FF1BC1E6
:1005F000EAFFEF50040B03E00401010E286F00D066
:10060000010117050AE10101280E186F040E196F88
:1006100001011F930101020E1C6F1200040122054B
:1006200010E120511F0B00090CE10101010E176FB1
:10063000030E0401215D03E101011F8102D00101CC
:100640001F91040122513AE120511F0B020836E1AB
:1006500024510F0B000932E00101010E176F040154
:1006600024510F0B080DF350116A000F106E040E89
:1006700011222451800B01E0010E040DF350010101
:1006800010241A6F000E11201B6F030E0401215D50
:1006900007E1840E1AC1E9FF1BC1EAFFEF6E0ED01D
:1006A00024AF06D01AC1E9FF1BC1EAFFEF6A06D0EA
:1006B000880E1AC1E9FF1BC1EAFFEF6E12006C50F1
:1006C00002E0000E01D0010E00090BE00401005110
:1006D0003C0BE842E8420D0802E10CD801D040D8BA
:1006E00008D06C5002E0000E01D0010E040901E0B8
:1006F00047D81200D9CFE6FFE1CFD9FFE65201017A
:10070000166B176B1C6B1D6BD9EC01F0DF6ADF50A9
:10071000106E116A010E105C000E11581BE20101EF
:10072000175101E017D0F76ADF34FE0BF736F66E8B
:10073000F90EF6260E0EF7220900F5CF10F008008C
:10074000F5CF11F004D011C0FAFF1050F96EFBDFA5
:10075000DF2ADDD7DDD8E552E552E7CFD9FF120019
:10076000020E0101165D0AE196D8040100BD03D016
:10077000C80E006F02D0880E006F01D00FD9120092
:10078000040E01011E5D0AE122C46EFF6E500008D6
:1007900003E2050E1E6F02D0030E1E6F0101160547
:1007A0000AE10BD8040104BD03D0C80E046F02D0C7
:1007B000880E046F01D0F2D81200D9CFE6FFE1CF46
:1007C000D9FF020EE1260101080E1C5D000E1D5925
:1007D00005E21CC1DEFF1DC1DDFF03D0080EDE6E89
:1007E000DD6A040104930491010EDB500413DFCF92
:1007F00005F4000EDB5001011C5F010EDB501D5B98
:10080000280E1A6F040E1B6F01011FA31ED0D9CF33
:10081000E9FFDACFEAFFEE50ED1016E018C1F6FF5F
:1008200019C1F7FF0800F5501AC1E9FF1BC1EAFF23
:10083000EF6E01011A2B000E1B23182B1923DF0664
:10084000010E01E2DB06E3D71CD0D9CFE9FFDACFF6
:10085000EAFFEE50ED1015E018C1E9FF19C1EAFFFB
:10086000EF501AC1E9FF1BC1EAFFEF6E01011A2B1D
:10087000000E1B23182B1923DF06010E01E2DB06F5
:10088000E4D7020EE15C02E2E16AE552E16EE55274
:10089000E7CFD9FF1200D9CFE6FFE1CFD9FF020E93
:1008A000E126030E04010015E76E010EE7CFDBFF22
:1008B00001C4DFFFDE5001011C27DD501D23280E7F
:1008C000186F040E196FD9CFE9FFDACFEAFFEE50A7
:1008D000ED1014E018C1E9FF19C1EAFFEF501AC189
:1008E000E9FF1BC1EAFFEF6E1A2B000E1B23182B2A
:1008F0001923DF06010E01E2DB06E5D7020EE15CFB
:1009000002E2E16AE552E16EE552E7CFD9FF12005B
:10091000010117510CE10401080E016F200E026F56
:10092000040E036F840E006F0401046F35D00401C0
:1009300020AF22D001011C510401265D01011D518F
:100940000401275904E226C41CF127C41DF135DF38
:100950000101010E166F0401080E016F200E026FD7
:10096000040E036F800E006F0401280E066F040E44
:10097000076FC80E046F10D00101020E166F04013C
:10098000056BC80E046F0401080E016F280E026F7C
:10099000040E036FC80E006F6D9812000101166BF4
:1009A0000401080E016F200E026F040E036F880E03
:1009B000006F0401046B12008A849394E66A030EAC
:1009C000E66E020EE66ECDEC07F0E552E552E5521A
:1009D0000101870E006F0C0E016F00EF05F08A9485
:1009E000B9EC08F00101016FB9EC08F00101006FEA
:1009F0008A8400B502D0000E02D0010E00D0120091
:100A0000D9CFE6FFE1CFD9FF030EE12600C110F0F8
:100A100001C111F0D89011321032E804FBE110C08E
:100A2000DEFF11C0DDFFD950010FE96EDACFEAFF1A
:100A3000EF50100B08E1010EDB9ADB9CDB9E0101FD
:100A40002B0E026F16D0010EDB8ADB8CDB8E0101D0
:100A50002D0E026FDECF10F0DDCF11F0FF0E101A59
:100A6000111A10C0DEFF11C0DDFFDF2A010E01E305
:100A7000DB2ADECF10F0DDCF11F00A0E1102F3CF2A
:100A800011F01002F3CF10F0F4501126040ED8909C
:100A900011321032E804FBE110C0DEFF11C0DDFFAF
:100AA000040EF36E020EF3CFDBFFDB50000833E2DF
:100AB000DECF10F0DDCF11F00A0E0B6E0C6A10C005
:100AC00006F011C007F085EC08F002C010F003C07A
:100AD00011F00F0E10143009E66E020EDB50EA6AB8
:100AE000020FE96E010EEA22E552E750EF6ED9CF10
:100AF000E9FFDACFEAFF0A0E0B6E0C6AEECF06F0C2
:100B0000EDCF07F085EC08F006C0EEFF07C0EDFF63
:100B1000020EDB06CAD7300E0101035D07E1200E8D
:100B2000036F300E045D02E1200E046F06C107F171
:100B30002E0E066FF80E086F430E096F0D0E0A6F2A
:100B40000B6B030EE15C02E2E16AE552E16EE552F5
:100B5000E7CFD9FF120080A203D06DA60FD802D034
:100B60006DB613D801011E0508E16DBA06D0686A9A
:100B7000696A69806988020E1E6F12006D6A696A6F
:100B80006D860101010E1E6F12006D6A696A010116
:100B90001E6B1200C5EF05F001011E5101E13AD0B4
:100BA0006850040B04E06950040B01E03CD86DB2BE
:100BB00031D06850010B04E06950010B01E054D8BA
:100BC0006850100B04E06950100B01E024D8685005
:100BD000400B04E06950400B01E03BD86850200B0B
:100BE00004E06950200B01E036D86850020B04E0A5
:100BF0006950020B01E036D8030E01011E5D01E2CF
:100C000009D06850080B06E06950080B03E05FEC60
:100C100003F068961200698468986D82A19AA08A90
:100C20000300A09A12006D92699468941200010169
:100C30001FA10ED0F8DF6D840101080E226F070E90
:100C4000236F2207000E235B22512311FAE16D94DA
:100C50001200689C120070A003D0CEEC04F07090DB
:100C6000689A1200689212006A6A686A9F0E6B6E38
:100C70007B0E696E6E6A0F0EE66E710EE66E0F0EDB
:100C8000E66E14D8E552E552E552160E706E68A66F
:100C900002D06896FCD76D98CEEC04F001011F914C
:100CA0000101206B0101030E1E6F1200D9CFE6FF78
:100CB000E1CFD9FFFD0EDBCFE9FFFE0EDBCFEAFF70
:100CC000FC0EDB5004E0EE6AFC0EDB06F9D7E552C1
:100CD000E7CFD9FF12009388938A8150100B01E06F
:100CE000010E0001606F8150200B01E0010E616F69
:100CF000DCEC04F07CEF06F0948E949C710EAF6EE9
:100D0000020EB06E240EAC6E900EAB6E080EB86E76
:100D10001200060E01011E5D03E36D50020B01E09F
:100D200006D006D840D840D840D840D840D8120085
:100D30000101245106E155D8000902E00101242BEC
:100D400031D024050EE10001E5510AE13A0EE66ECC
:100D5000100EE66E23EC01F0E552E5520101242B62
:100D600021D0020E245D0EE10001E5510AE1360EAC
:100D7000E66E110EE66E23EC01F0E552E55201013C
:100D8000242B10D0030E245D0DE10001E5510AE192
:100D9000000EE66E100EE66E23EC01F0E552E55211
:100DA0000101242B12001200120012001200000197
:100DB000E251E31112E1EFEC04F000EC05F0020E59
:100DC000E66E010EE66E2CEC08F0E552E5520001ED
:100DD000100EE26F270EE36F03D0E207000EE35B15
:100DE00012008150100B01E0010E0001605D09E06E
:100DF0008150100B01E0010E606F81B802D0010E2E
:100E000002D0000E00D012008150200B01E0010E34
:100E10000001615D09E08150200B01E0010E616F6E
:100E200081BA02D0010E02D0000E00D012001201D1
:100E3000000202000008D8040A00000001020001BC
:100E4000090243000201008032090400000102028D
:100E500001000524001001042402020524060001FB
:100E600005240100010705820308000209040100AE
:100E7000020A000000070503024000000705830284
:100E80004000000403090434034D0069006300724C
:100E9000006F006300680069007000200054006566
:100EA00000630068006E006F006C006F00670079DF
:100EB00000200049006E0063002E0034034300440C
:100EC0000043002000520053002D00320033003256
:100ED00000200045006D0075006C00610074006921
:100EE000006F006E002000440065006D006F004040
:100EF0000E400E830E870EBB0E3800FF2A0EF66ED4
:100F0000000EF76E000EF86E01010900F550116F2A
:100F10000900F550126F03E1116701D03DD00900BF
:100F2000F5500C6F0900F5500D6F0900F5500E6F6C
:100F300009000900F550E96E0900F550EA6E090054
:100F400009000900F5500F6F0900F550106F0900F6
:100F50000900F6CF13F1F7CF14F1F8CF15F10CC15A
:100F6000F6FF0DC1F7FF0EC1F8FF01010F5302E1BB
:100F7000105307E00900F550EE6E0F07F8E2100776
:100F8000F9D713C1F6FF14C1F7FF15C1F8FF01012E
:100F90001107000E125BBFD71200D9CFE6FFDACFE0
:100FA000E6FFE1CFD9FFE2CFDAFF3F0EC716C66AF0
:100FB000FD0EDB50C612FB0EDB50C712FC0EDB50E1
:100FC000030A09E0010A04E0020A06E1C78C04D022
:100FD000C78CC68801D0C688FD0EDB50050A03E029
:100FE000010A04E1928A9382C79E01D09392949E53
:100FF0009380C68AE552E5CFDAFFE7CFD9FF12002A
:10100000504943313846343535302046756C6C2DA7
:10101000537065656420555342202D20434443207E
:1010200052532D32333220456D756C6174696F6E89
:101030002044656D6F0D0A0D0A001B5B324A005497
:1010400079706520696E206120737472696E672003
:10105000686572652E0D0A00D9CFE6FFDACFE6FF8C
:10106000E1CFD9FFE2CFDAFFACA2FED7FC0EDBCF97
:10107000E9FFFD0EDBCFEAFFEF50E66E6EEC08F005
:10108000E552FC0EDBCFE9FFDB2AFD0EDBCFEAFFEA
:1010900001E3DB2AEF50E8E1E552E5CFDAFFE7CFE5
:1010A000D9FF120005D812D889EC06F0FCD712003F
:1010B0000F0EC11292829284140E6F6E01011E6B8C
:1010C00001011F6B0101206B6BEF06F0ABEC05F02B
:1010D0006FBE02D0CCEC05F061EF01F0D9CFE6FF96
:1010E000DACFE6FFE1CFD9FFE2CFDAFFACAC04D034
:1010F000AC900001FFB3AC80FD0EDB50AD6EE5524D
:10110000E5CFDAFFE7CFD9FF1200036A026A100EBB
:10111000E76ED89006360736023603360B50025C6F
:101120000C50035805E30B50025E0C50035A062A7C
:10113000E72EF0D712000D4D6963726F6368697016
:1011400020546563686E6F6C6F677920496E632EFB
:101150002C20323030340D0A000013EE00F023EE64
:1011600000F0F86A0F9C7EEC07F052EC08F0FDD717
:101170001200C96AC7A0FED7C9501200FFFFFFFFC7
:10118000FFFFFFFFFFFFFFFFFFFFFFFFFFFFFFFF6F
:10119000FFFFFFFFFFFFFFFFFFFFFFFFFFFFFFFF5F
:1011A000FFFFFFFFFFFFFFFFFFFFFFFFFFFFFFFF4F
:1011B000FFFFFFFFFFFFFFFFFFFFFFFFFFFFFFFF3F
:103DF000FFFFFFFFFFFFFFFFFFFFFF00FFFFFFFFD2
:103E0000FFFFFFFFFFFFFFFFFFFFFFFFFFFFFFFFC2
:103E1000FFFFFFFFFFFFFFFFFFFFFFFFFFFFFFFFB2
:103E2000FFFFFFFFFFFFFFFFFFFFFFFFFFFFFFFFA2
:103E3000FFFFFFFFFFFFFFFFFFFFFFFFFFFFFFFF92
:105B0000FFFFFFFFFFFFFFFFF8FF89FF80FFFFFFA1
:105B1000FFFFFFFFFFFFFFFFFFFFFFFFFFFFFFFF95
:105B2000FFFFFFFFFFFFFFFFFFFFFFFFFFFFFFFF85
:105B3000FFFFFFFFFFFFFFFFFFFFFFFFFFFFFFFF75
:105B4000FFFFFFFFFFFFFFFFFFFFFFFFFFFFFFFF65
:105B5000FFFFFFFFFFFFFFFFFFFFFFFFFFFFFFFF55
:105B6000FFFFFFFFFFFFFFFFFFFFFFFFFFFFFFFF45
:105B7000FFFFFFFFFFFFFFFFFFFFFFFFFFFFFFFF35
:105B8000FFFFFFFFFFFFFFFFFFFFFFFFFFFFFFFF25
:105B9000FFFFFFFFFFFFFFFFFFFFFFFFFFFFFFFF15
:105BA000FFFFFFFFFFFFFFFFFFFFFFFFFFFF80FF84
:105BB00080FF92FFE0FFFFFFFFFFFFFFFFFFFFFF00
:105BC000FFFFFFFFFFFFFFFF80FF80FF82FFE0FF7F
:105BD000FFFFFFFFFFFFFFFFFFFFFFFFFFFFFFFFD5
:105BE000FFFFE0FFFFFFFFFFFFFFFFFFFFFFFFFFE4
:105BF000FFFFFFFFFFFFE8FF90FFEAFFFFFFFFFF50
:105C0000FFFFFFFFFFFFFFFFFFFFFFFFFFFFF4FFAF
:105C1000A1FFF4FFA1FFF4FFA1FFF4FFA1FFE0FF4C
:105C2000FFFFFFFFFFFFFFFFFFFFFFFFFFFFFFFF84
:105C3000FFFFE8FF92FFEAFFFFFFFFFFFFFFFFFF0D
:105C4000FFFFFFFFFFFFFFFFFFFFE0FFFFFFFFFF83
:105C5000FFFFFFFFFFFFFFFFFFFFFFFFFFFFEAFF69
:105C6000FFFFFFFFFFFFFFFFFFFFFFFFFFFFFFFF44
:105C7000FFFFE0FFFFFFFFFFFFFFFFFFFFFFFFFF53
:105C8000FFFFFFFFFFFF85FF98FFF0FFE0FFFFFF33
:105C9000FFFFFFFFFFFFFFFFFFFFFFFFFFFFFFFF14
:105CA00085FF91FFF0FFE0FFFFFFFFFFFFFFFFFF1A
:105CB000FFFFFFFFFFFFFFFFFFFF85FF8EFFF0FFEE
:105CC000E0FFFFFFFFFFFFFFFFFFFFFFFFFFFFFF03
:105CD000FFFFFFFF85FFE0FFFFFFFFFFFFFFFFFF6D
:105CE000FFFFFFFFFFFFFFFFFFFFE0FFFFFFFFFFE3
:105CF000FFFFFFFFFFFFFFFFFFFFFFFFFFFFE0FFD3
:105D0000FFFFFFFFFFFFFFFFFFFFFFFFFFFFFFFFA3
:105D1000FFFFEDFFFFFFFFFFFFFFFFFFFFFFFFFFA5
:105D2000FFFFFFFFFFFFE0FFFFFFFFFFFFFFFFFFA2
:105D3000FFFFFFFFFFFFFFFFFFFFE0FFFFFFFFFF92
:105D4000FFFFFFFFFFFFFFFFFFFFFFFFFFFF95FFCD
:105D5000E8FFE0FFFFFFFFFFFFFFFFFFFFFFFFFF89
:105D6000FFFFFFFFFFFFEDFFFFFFFFFFFFFFFFFF55
:105D7000FFFFFFFFFFFFFFFFFFFF8DFFEDFFFFFFB7
:105D8000FFFFFFFFFFFFFFFFFFFFFFFFFFFFFFFF23
:105D9000E4FFFFFFFFFFFFFFFFFFFFFFFFFFFFFF2E
:105DA000FFFFFFFFE8FF8FFFE8FFE0FFFFFFFFFFC0
:105DB000FFFFFFFFFFFFFFFFFFFFFFFFFFFFEDFF05
:105DC000FFFFFFFFFFFFFFFFFFFFFFFFFFFFFFFFE3
:105DD000FFFF8DFFEDFFFFFFFFFFFFFFFFFFFFFF57
:105DE000FFFFFFFFFFFFFFFFE2FFFFFFFFFFFFFFE0
:105DF000FFFFFFFFFFFFFFFFFFFFFFFF87FFE2FF48
:105E0000FFFFFFFFFFFFFFFFFFFFFFFFFFFFFFFFA2
:105E1000FFFF87FF8CFFEDFFFFFFFFFFFFFFFFFF8F
:105E2000FFFFFFFFFFFFFFFFFFFFE0FFFFFFFFFFA1
:105E3000FFFFFFFFFFFFFFFFFFFFFFFFFFFFE0FF91
:105E4000FFFFFFFFFFFFFFFFFFFFFFFFFFFFFFFF62
:105E5000FFFFE0FFFFFFFFFFFFFFFFFFFFFFFFFF71
:105E6000FFFFFFFFFFFF87FFE2FFFFFFFFFFFFFFD7
:105E7000FFFFFFFFFFFFFFFFFFFFFFFFF8FFE0FF58
:105E8000FFFFFFFFFFFFFFFFFFFFFFFFFFFFFFFF22
:105E9000FFFF80FF80FFE0FFFFFFFFFFFFFFFFFF2F
:105EA000FFFFFFFFFFFFFFFFFFFFFDFFFFFFFFFF04
:105EB000FFFFFFFFFFFFFFFFFFFFFFFFFFFFEDFF04
:105EC000FFFFFFFFFFFFFFFFFFFFFFFFFFFFFFFFE2
:105ED000FFFFFEFFFFFFFFFFFFFFFFFFFFFFFFFFD3
:105EE000FFFFFFFFFFFFEDFFFFFFFFFFFFFFFFFFD4
:105EF000FFFFFFFFFFFFFFFFFFFF8DFF87FFB9FFE2
:105F0000B7FF8FFF87FFEEFFFFFFFFFFFFFFFFFFE2
:105F1000FFFFFFFFFFFFFFFFFFFF87FF8BFFEDFF8F
:105F2000FFFFFFFFFFFFFFFFFFFFFFFFFFFFFFFF81
:105F3000FFFFA0FF87FF8AFFEDFFFFFFFFFFFFFFCF
:105F4000FFFFFFFFFFFFFFFFFFFFFFFF84FF87FF54
:105F50008DFFEDFFFFFFFFFFFFFFFFFFFFFFFFFFD5
:105F6000FFFFFFFFFFFFC4FF87FF8CFFEDFFFFFF79
:105F7000FFFFFFFFFFFFFFFFFFFFFFFFFFFFFFFF31
:105F80008FFFEDFFFFFFFFFFFFFFFFFFFFFFFFFFA3
:105F9000FFFFFFFFFFFFA0FF87FF8EFFEDFFFFFF6B
:105FA000FFFFFFFFFFFFFFFFFFFFFFFFFFFFFFFF01
:105FB000F3FFFFFFFFFFFFFFFFFFFFFFFFFFFFFFFD
:105FC000FFFFFFFFFFFF80FFE0FFFFFFFFFFFFFF7F
:105FD000FFFFFFFFFFFFFFFFFFFFFFFF8CFFF7FF4C
:105FE000FFFFFFFFFFFFFFFFFFFFFFFFFFFFFFFFC1
:105FF000FFFFFBFFFFFFFFFFFFFFFFFFFFFFFFFFB5
:10600000FFFFFFFFFFFFEAFFFFFFFFFFFFFFFFFFB5
:10601000FFFFFFFFFFFFFFFFFFFFE0FFFFFFFFFFAF
:10602000FFFFFFFFFFFFFFFFFFFFFFFFFFFFE2FF9D
:10603000FBFFFFFFFFFFFFFFFFFFFFFFFFFFFFFF74
:10604000FFFFFFFFEDFFFFFFFFFFFFFFFFFFFFFF72
:10605000FFFFFFFFFFFFFFFFF2FFEBFFFFFFFFFF71
:10606000FFFFFFFFFFFFFFFFFFFFFFFFFFFFF5FF4A
:10607000B5FF84FFE1FFFFFFFFFFFFFFFFFFFFFF13
:10608000FFFFFFFFFFFFFFFFF5FF91FFFDFFFFFF9A
:10609000FFFFFFFFFFFFFFFFFFFFFFFFFFFFFFFF10
:1060A000EAFFFFFFFFFFFFFFFFFFFFFFFFFFFFFF15
:1060B000FFFFFFFFFBFFFFFFFFFFFFFFFFFFFFFFF4
:1060C000FFFFFFFFFFFFFFFF87FFFBFFFFFFFFFF5C
:1060D000FFFFFFFFFFFFFFFFFFFFFFFFFFFFA8FF27
:1060E000FDFFFFFFFFFFFFFFFFFFFFFFFFFFFFFFC2
:1060F000FFFFFFFF91FFFCFFFFFFFFFFFFFFFFFF21
:10610000FFFFFFFFFFFFFFFFFFFFB7FFF2FFE5FF0E
:10611000FFFFFFFFFFFFFFFFFFFFFFFFFFFFFFFF8F
:10612000FFFFA0FF87FFE3FFFFFFFFFFFFFFFFFF72
:10613000FFFFFFFFFFFFFFFFFFFFEFFFFFFFFFFF7F
:10614000FFFFFFFFFFFFFFFFFFFFFFFFFFFF80FFDE
:10615000E0FFFFFFFFFFFFFFFFFFFFFFFFFFFFFF6E
:10616000FFFFFFFFFCFFFFFFFFFFFFFFFFFFFFFF42
:10617000FFFFFFFFFFFFFFFFFFFFFFFFFFFFFFFF2F
:10618000FFFFFFFFFFFFFFFFFFFFFFFFF3FFFFFF2B
:10619000FFFFFFFFFFFFFFFFFFFFFFFFFFFFFFFF0F
:1061A000FFFFF3FFA9FF80FFE0FFFFFFFFFFFFFFFF
:1061B000FFFFFFFFFFFFFFFFFFFFFFFFE5FFFFFF09
:1061C000FFFFFFFFFFFFFFFFFFFFFFFFFFFFFFFFDF
:1061D00095FFFBFFFFFFFFFFFFFFFFFFFFFFFFFF3D
:1061E000FFFFFFFFFFFFB5FFFFFFFFFFFFFFFFFF09
:1061F000FFFFFFFFFFFFFFFFFFFFFFFFFCFFFFFFB2
:10620000FFFFFFFFFFFFFFFFFFFFFFFFFFFFFFFF9E
:10621000E1FFFFFFFFFFFFFFFFFFFFFFFFFFFFFFAC
:10622000FFFFFFFFF9FFFFFFFFFFFFFFFFFFFFFF84
:10623000FFFFFFFFFFFFFFFFFFFF87FFFBFFFFFFEA
:10624000FFFFFFFFFFFFFFFFFFFFFFFFFFFFFFFF5E
:10625000FCFFFFFFFFFFFFFFFFFFFFFFFFFFFFFF51
:10626000FFFFFFFFFDFFFFFFFFFFFFFFFFFFFFFF40
:10627000FFFFFFFFFFFFFFFFB7FFE2FFFFFFFFFF93
:10628000FFFFFFFFFFFFFFFFFFFFFFFFFFFFE1FF3C
:10629000FFFFFFFFFFFFFFFFFFFFFFFFFFFFFFFF0E
:1062A000FFFFEDFF90FFF5FFB7FF88FFA8FFF7FFA7
:1062B000AFFFE2FFFFFFFFFFFFFFFFFFFFFFFFFF5B
:1062C000FFFFFFFFFFFF87FFFBFFFFFFFFFFFFFF5A
:1062D000FFFFFFFFFFFFFFFFFFFFFFFF87FFFBFF4A
:1062E000FFFFFFFFFFFFFFFFFFFFFFFFFFFFFFFFBE
:1062F000FFFFF9FFFFFFFFFFFFFFFFFFFFFFFFFFB4
:10630000FFFFFFFFFFFFFDFFFFFFFFFFFFFFFFFF9F
:10631000FFFFFFFFFFFFFFFFFFFFEDFFFFFFFFFF9F
:10632000FFFFFFFFFFFFFFFFFFFFFFFFFFFFFCFF80
:10633000FFFFFFFFFFFFFFFFFFFFFFFFFFFFFFFF6D
:10634000FFFF80FFFBFFFFFFFFFFFFFFFFFFFFFFE0
:10635000FFFFFFFFFFFFFFFFF9FFFFFFFFFFFFFF53
:10636000FFFFFFFFFFFFFFFFFFFFFFFF80FFE0FFDB
:10637000FFFFFFFFFFFFFFFFFFFFFFFFFFFFFFFF2D
:10638000FFFF98FFE8FFFBFFFFFFFFFFFFFFFFFF9F
:10639000FFFFFFFFFFFFFFFFFFFFA8FF88FFB7FF23
:1063A000E2FFFFFFFFFFFFFFFFFFFFFFFFFFFFFF1A
:1063B000FFFFFFFF8CFFE0FFFFFFFFFFFFFFFFFF7F
:1063C000FFFFFFFFFFFFFFFFFFFFFCFFFFFFFFFFE0
:1063D000FFFFFFFFFFFFFFFFFFFFFFFFFFFFFBFFD1
:1063E000FFFFFFFFFFFFFFFFFFFFFFFFFFFFFFFFBD
:1063F000FFFF95FFFFFF87FFFBFFFFFFFFFFFFFF93
:10640000FFFFFFFFFFFFFFFFFFFFFFFFFCFFFFFF9F
:10641000FFFFFFFFFFFFFFFFFFFFFFFFFFFFFFFF8C
:10642000FEFFFFFFFFFFFFFFFFFFFFFFFFFFFFFF7D
:10643000FFFFFFFFA8FF88FFB7FFE2FFFFFFFFFF9F
:10644000FFFFFFFFFFFFFFFFFFFFFFFFFFFFE1FF7A
:10645000FFFFFFFFFFFFFFFFFFFFFFFFFFFFFFFF4C
:10646000FFFFEDFF90FFF5FFB7FF88FFA8FFF7FFE5
:10647000AFFFE2FFFFFFFFFFFFFFFFFFFFFFFFFF99
:10648000FFFFFFFFFFFF87FFFBFFFFFFFFFFFFFF98
:10649000FFFFFFFFFFFFFFFFFFFFFFFF87FFFBFF88
:1064A000FFFFFFFFFFFFFFFFFFFFFFFFFFFFFFFFFC
:1064B000FFFFF9FFFFFFFFFFFFFFFFFFFFFFFFFFF2
:1064C000FFFFFFFFFFFFE0FFFFFFFFFFFFFFFFFFFB
:1064D000FFFFFFFFFFFFFFFFFFFFEDFFFFFFFFFFDE
:1064E000FFFFFFFFFFFFFFFFFFFFFFFFFFFFFCFFBF
:1064F000FFFFFFFFFFFFFFFFFFFFFFFFFFFFFFFFAC
:10650000FFFF80FFFBFFFFFFFFFFFFFFFFFFFFFF1E
:10651000FFFFFFFFFFFFFFFFF9FFFFFFFFFFFFFF91
:10652000FFFFFFFFFFFFFFFFFFFFFFFF82FFE0FF17
:10653000FFFFFFFFFFFFFFFFFFFFFFFFFFFFFFFF6B
:10654000FFFFE0FFFFFFFFFFFFFFFFFFFFFFFFFF7A
:10655000FFFFFFFFFFFFEBFFFFFFFFFFFFFFFFFF5F
:10656000FFFFFFFFFFFFFFFFFFFFFCFFFFFFFFFF3E
:10657000FFFFFFFFFFFFFFFFFFFFFFFFFFFFE8FF42
:1065800081FF87FFFCFFFFFFFFFFFFFFFFFFFFFF14
:10659000FFFFFFFFFFFFFFFFE0FFFFFFFFFFFFFF2A
:1065A000FFFFFFFFFFFFFFFFFFFFFFFFE0FFFFFF1A
:1065B000FFFFFFFFFFFFFFFFFFFFFFFFFFFFFFFFEB
:1065C000E8FFFCFFFFFFFFFFFFFFFFFFFFFFFFFFF5
:1065D000FFFFFFFFFFFF87FF88FFB7FFE2FFFFFF1F
:1065E000FFFFFFFFFFFFFFFFFFFFFFFFFFFFFFFFBB
:1065F000AEFF80FF87FFE2FFFFFFFFFFFFFFFFFF10
:10660000FFFFFFFFFFFFFFFFFFFF87FFFBFFFFFF16
:10661000FFFFFFFFFFFFFFFFFFFFFFFFFFFFFFFF8A
:10662000E0FFFBFFFFFFFFFFFFFFFFFFFFFFFFFF9D
:10663000FFFFFFFFFFFFFAFFFBFFFFFFFFFFFFFF73
:10664000FFFFFFFFFFFFFFFFFFFFFFFFEDFFFFFF6C
:10665000FFFFFFFFFFFFFFFFFFFFFFFFFFFFFFFF4A
:10666000E0FFFFFFFFFFFFFFFFFFFFFFFFFFFFFF59
:10667000FFFFFFFFE0FFFFFFFFFFFFFFFFFFFFFF49
:10668000FFFFFFFFFFFFFFFF89FFF0FFF3FFE0FFCA
:10669000FBFFFFFFFFFFFFFFFFFFFFFFFFFFFFFF0E
:1066A000FFFFFFFFFFFF84FF80FFFEFFFFFFFFFFF5
:1066B000FFFFFFFFFFFFFFFFFFFFFFFFFFFFFFFFEA
:1066C000FFFFFFFFFFFFFFFFFFFFFFFFFFFFFFFFDA
:1066D000FFFFFDFFFFFFFFFFFFFFFFFFFFFFFFFFCC
:1066E000FFFFFFFFFFFF87FFFDFFFFFFFFFFFFFF34
:1066F000FFFFFFFFFFFFFFFFFFFFFFFFE4FFFFFFC5
:10670000FFFFFFFFFFFFFFFFFFFFFFFFFFFFFFFF99
:10671000E2FFFFFFFFFFFFFFFFFFFFFFFFFFFFFFA6
:10672000FFFFFFFFF0FFF3FFE0FFFDFFFFFFFFFFB5
:10673000FFFFFFFFFFFFFFFFFFFFFFFFFFFFFFFF69
:10674000FFFFFFFFFFFFFFFFFFFFFFFFFFFFFFFF59
:10675000FFFFFDFFFFFFFFFFFFFFFFFFFFFFFFFF4B
:10676000FFFFFFFFFFFFFFFFFFFFFFFFFFFFFFFF39
:10677000FFFFFFFFFFFFFFFFFFFF80FF87FFFDFF22
:10678000FFFFFFFFFFFFFFFFFFFFFFFFFFFFFFFF19
:10679000FFFFE4FFFFFFFFFFFFFFFFFFFFFFFFFF24
:1067A000FFFFFFFFFFFFF5FFEAFFFFFFFFFFFFFF18
:1067B000FFFFFFFFFFFFFFFFFFFFFFFFE3FFFFFF05
:1067C000FFFFFFFFFFFFFFFFFFFFFFFFFFFFFFFFD9
:1067D000B5FFA0FF87FF88FF8CFFE0FFFFFFFFFFF3
:1067E000FFFFFFFFFFFFFFFFFFFFFFFFFFFFFCFFBC
:1067F000FFFFFFFFFFFFFFFFFFFFFFFFFFFFFFFFA9
:10680000FFFFFCFFFFFFFFFFFFFFFFFFFFFFFFFF9B
:10681000FFFFFFFFFFFFE0FFFFFFFFFFFFFFFFFFA7
:10682000FFFFFFFFFFFFFFFFFFFFA0FF87FF82FFCC
:10683000E0FFFFFFFFFFFFFFFFFFFFFFFFFFFFFF87
:10684000FFFFFFFFC4FF87FF8EFFE2FFFFFFFFFF99
:10685000FFFFFFFFFFFFFFFFFFFFFFFFFFFFFCFF4B
:10686000FFFFFFFFFFFFFFFFFFFFFFFFFFFFFFFF38
:10687000FFFF80FF82FFE0FFFFFFFFFFFFFFFFFF43
:10688000FFFFFFFFFFFFFFFFFFFFF4FFA1FFF4FF8C
:10689000A1FFF4FFA1FFF4FFA1FFF4FFA1FF80FF20
:1068A000E1FFFFFFFFFFFFFFFFFFFFFFFFFFFFFF16
:1068B000FFFFFFFFE4FFFFFFFFFFFFFFFFFFFFFF03
:1068C000FFFFFFFFFFFFFFFFF0FFE1FFFFFFFFFF05
:1068D000FFFFFFFFFFFFFFFFFFFFFFFFFFFF85FF42
:1068E000A0FFF0FFE0FFFFFFFFFFFFFFFFFFFFFF45
:1068F000FFFFFFFFFFFFFFFF85FF94FFF0FF81FF1A
:1069000085FF93FFF0FFE0FFFFFFFFFFFFFFFFFFAB
:10691000FFFFFFFFFFFFFFFFFFFF85FF89FFF0FF86
:10692000E0FFFFFFFFFFFFFFFFFFFFFFFFFFFFFF96
:10693000FFFFFFFF85FF85FFF0FFE0FFFFFFFFFF89
:10694000FFFFFFFFFFFFFFFFFFFFFFFFFFFFE8FF6E
:10695000E0FFFFFFFFFFFFFFFFFFFFFFFFFFFFFF66
:10696000FFFFFFFFEDFFFFFFFFFFFFFFFFFFFFFF49
:10697000FFFFFFFFFFFFFFFF8FFFEDFFFFFFFFFFA9
:10698000FFFFFFFFFFFFFFFFFFFFFFFFFFFF9AFF7C
:10699000E8FFC8FFECFF99FFE8FFE0FFFFFFFFFF04
:1069A000FFFFFFFFFFFFFFFFFFFFFFFFFFFFEDFF09
:1069B000FFFFFFFFFFFFFFFFFFFFFFFFFFFFFFFFE7
:1069C000FFFF8CFFEDFFFFFFFFFFFFFFFFFFFFFF5C
:1069D000FFFFFFFFFFFFFFFFE0FFFFFFFFFFFFFFE6
:1069E000FFFFFFFFFFFFFFFFFFFFFFFFE0FFFFFFD6
:1069F000FFFFFFFFFFFFFFFFFFFFFFFFFFFFFFFFA7
:106A000092FFE8FFD4FFECFF91FFE8FFFBFFECFFF4
:106A100090FFE8FFE0FFFFFFFFFFFFFFFFFFFFFF2B
:106A2000FFFFFFFFFFFFFFFFEDFFFFFFFFFFFFFF88
:106A3000FFFFFFFFFFFFFFFFFFFFFFFFE0FFFFFF85
:106A4000FFFFFFFFFFFFFFFFFFFFFFFFFFFFFFFF56
:106A5000EDFFFFFFFFFFFFFFFFFFFFFFFFFFFFFF58
:106A6000FFFFFFFFE0FFFFFFFFFFFFFFFFFFFFFF55
:106A7000FFFFFFFFFFFFFFFFE0FFFFFFFFFFFFFF45
:106A8000FFFFFFFFFFFFFFFFFFFFFFFFE0FFFFFF35
:106A9000FFFFFFFFFFFFFFFFFFFFFFFFFFFFFFFF06
:106AA000E8FFE0FFFFFFFFFFFFFFFFFFFFFFFFFF2C
:106AB000FFFFFFFFFFFFEDFFFFFFFFFFFFFFFFFFF8
:106AC000FFFFFFFFFFFFFFFFFFFFF5FFB5FFE4FF45
:106AD000FFFFFFFFFFFFFFFFFFFFFFFFFFFFFFFFC6
:106AE000FFFF87FFF5FF91FF91FFE2FFFDFFFFFF33
:106AF000FFFFFFFFFFFFFFFFFFFFFFFFFFFFFFFFA6
:106B0000E8FF89FF80FFC0FF87FF82FFE0FFFFFFF4
:106B1000FFFFFFFFFFFFFFFFFFFFFFFFFFFFFFFF85
:106B2000E4FFFFFFFFFFFFFFFFFFFFFFFFFFFFFF90
:106B3000FFFFFFFFF0FFE0FFFFFFFFFFFFFFFFFF93
:106B4000FFFFFFFFFFFFFFFFFFFF85FFE0FFFFFFEE
:106B5000FFFFFFFFFFFFFFFFFFFFFFFFFFFFFFFF45
:106B6000E0FFFFFFFFFFFFFFFFFFFFFFFFFFFFFF54
:106B7000FFFFFFFFE0FFFFFFFFFFFFFFFFFFFFFF44
:106B8000FFFFFFFFFFFFFFFFEDFFFFFFFFFFFFFF27
:106B9000FFFFFFFFFFFFFFFFFFFFFFFF89FF87FFF3
:106BA000E0FFFFFFFFFFFFFFFFFFFFFFFFFFFFFF14
:106BB000FFFFFFFFEDFFFFFFFFFFFFFFFFFFFFFFF7
:106BC000FFFFFFFFFFFFFFFFE0FFFFFFFFFFFFFFF4
:106BD000FFFFFFFFFFFFFFFFFFFFFFFFE0FFFFFFE4
:106BE000FFFFFFFFFFFFFFFFFFFFFFFFFFFFFFFFB5
:106BF000FEFFFFFFFFFFFFFFFFFFFFFFFFFFFFFFA6
:106C0000FFFFFFFF9BFFFEFFFFFFFFFFFFFFFFFFF9
:106C1000FFFFFFFFFFFFFFFFFFFF93FF87FF87FFE0
:106C2000FEFFFFFFFFFFFFFFFFFFFFFFFFFFFFFF75
:106C3000FFFFFFFFF9FFFFFFFFFFFFFFFFFFFFFF6A
:106C4000FFFFFFFFFFFFFFFFFEFFFFFFFFFFFFFF55
:106C5000FFFFFFFFFFFFFFFFFFFFFFFF87FFE0FFDB
:106C6000FFFFFFFFFFFFFFFFFFFFFFFFFFFFFFFF34
:106C7000FFFFE4FFFFFFFFFFFFFFFFFFFFFFFFFF3F
:106C8000FFFFFFFFFFFFFEFFFFFFFFFFFFFFFFFF15
:106C9000FFFFFFFFFFFFFFFFFFFFF9FFFFFFFFFF0A
:106CA000FFFFFFFFFFFFFFFFFFFFFFFFFFFFFEFFF5
:106CB000FFFFFFFFFFFFFFFFFFFFFFFFFFFFFFFFE4
:106CC000FFFFE8FFE0FFFFFFFFFFFFFFFFFFFFFF0A
:106CD000FFFFFFFFFFFFFFFFEDFFFFFFFFFFFFFFD6
:106CE000FFFFFFFFFFFFFFFFFFFFFFFFFBFFB7FF00
:106CF000FEFFFFFFFFFFFFFFFFFFFFFFFFFFFFFFA5
:106D0000FFFFFFFF9BFFFEFFFFFFFFFFFFFFFFFFF8
:106D1000FFFFFFFFFFFFFFFFFFFF93FF87FF87FFDF
:106D2000FEFFFFFFFFFFFFFFFFFFFFFFFFFFFFFF74
:106D3000FFFFFFFFF9FFFFFFFFFFFFFFFFFFFFFF69
:106D4000FFFFFFFFFFFFFFFFFEFFFFFFFFFFFFFF54
:106D5000FFFFFFFFFFFFFFFFFFFFFFFFF8FFFFFF4A
:106D6000FFFFFFFFFFFFFFFFFFFFFFFFFFFFFFFF33
:106D7000FEFFFFFFFFFFFFFFFFFFFFFFFFFFFFFF24
:106D8000FFFFFFFFA8FFE0FFFFFFFFFFFFFFFFFF89
:106D9000FFFFFFFFFFFFFFFFFFFFEDFFFFFFFFFF15
:106DA000FFFFFFFFFFFFFFFFFFFFFFFFFFFFE3FF0F
:106DB000FFFFFFFFFFFFFFFFFFFFFFFFFFFFFFFFE3
:106DC000FFFFE0FFFFFFFFFFFFFFFFFFFFFFFFFFF2
:106DD000FFFFFFFFFFFFE1FFFFFFFFFFFFFFFFFFE1
:106DE000FFFFFFFFFFFFFFFFFFFF87FFF3FFB7FF7F
:106DF000E1FFFFFFFFFFFFFFFFFFFFFFFFFFFFFFC1
:106E0000FFFFFFFFF6FF83FFF8FFFCFFFFFFFFFF21
:106E1000FFFFFFFFFFFFFFFFFFFFFFFFFFFFA9FFD8
:106E2000E0FFFFFFFFFFFFFFFFFFFFFFFFFFFFFF91
:106E3000FFFFFFFF87FFF3FFB7FFE0FFFFFFFFFF4D
:106E4000FFFFFFFFFFFFFFFFFFFFFFFFFFFFF6FF5B
:106E500083FFF8FFFCFFFFFFFFFFFFFFFFFFFFFFC8
:106E6000FFFFFFFFFFFFFFFFA9FF91FFE2FF90FF82
:106E7000FEFFFFFFFFFFFFFFFFFFFFFFFFFFFFFF23
:106E8000FFFFFFFF82FFFCFFFFFFFFFFFFFFFFFF92
:106E9000FFFFFFFFFFFFFFFFFFFF8FFFEDFFFFFF84
:106EA000FFFFFFFFFFFFFFFFFFFFFFFFFFFFFFFFF2
:106EB00083FF87FF8FFFEDFFFFFFFFFFFFFFFFFF58
:106EC000FFFFFFFFFFFFFFFFFFFF89FF80FF82FF44
:106ED000E0FFFFFFFFFFFFFFFFFFFFFFFFFFFFFFE1
:106EE000FFFFFFFF82FFE0FFFFFFFFFFFFFFFFFF4E
:106EF000FFFFFFFFFFFFFFFFFFFF81FF85FF8BFF0E
:106F0000F0FFE0FFFFFFFFFFFFFFFFFFFFFFFFFFBF
:106F1000FFFFFFFFFFFF85FFE0FFFFFFFFFFFFFF1A
:106F2000FFFFFFFFFFFFFFFFFFFFFFFFE0FFFFFF90
:106F3000FFFFFFFFFFFFFFFFFFFFFFFFFFFFFFFF61
:106F4000C0FFD2FF81FFE8FF82FFE0FFFFFFFFFFEE
:106F5000FFFFFFFFFFFFFFFFFFFFFFFFFFFFE3FF5D
:106F6000FFFFFFFFFFFFFFFFFFFFFFFFFFFFFFFF31
:106F7000FFFFE0FFFFFFFFFFFFFFFFFFFFFFFFFF40
:106F8000FFFFFFFFFFFFE0FFFFFFFFFFFFFFFFFF30
:106F9000FFFFFFFFFFFFFFFFFFFFEDFFFFFFFFFF13
:106FA000FFFFFFFFFFFFFFFFFFFFFFFFFFFFE0FF10
:106FB000FFFFFFFFFFFFFFFFFFFFFFFFFFFFFFFFE1
:106FC000FFFFE0FFFFFFFFFFFFFFFFFFFFFFFFFFF0
:106FD000FFFFFFFFFFFF84FFE1FFFFFFFFFFFFFF5A
:106FE000FFFFFFFFFFFFFFFFFFFFFFFF80FFE1FF4E
:106FF000FFFFFFFFFFFFFFFFFFFFFFFFFFFFFFFFA1
:10700000FFFFE2FFFFFFFFFFFFFFFFFFFFFFFFFFAD
:10701000FFFFFFFFFFFFE1FFFFFFFFFFFFFFFFFF9E
:10702000FFFFFFFFFFFFFFFFFFFF82FFE1FFFFFF0B
:10703000FFFFFFFFFFFFFFFFFFFFFFFFFFFFFFFF60
:1070400088FF92FF8DFFEDFFFFFFFFFFFFFFFFFFB8
:10705000FFFFFFFFFFFFFFFFFFFFE3FFFFFFFFFF5C
:10706000FFFFFFFFFFFFFFFFFFFFFFFFFFFFFFFF30
:10707000FFFFFFFFFFFFFFFFFFFFFFFFFFFFFFFF20
:10708000FFFFFDFFFFFFFFFFFFFFFFFFFFFFFFFF12
:10709000FFFFFFFFFFFFF0FF82FFE0FFFFFFFFFFAB
:1070A000FFFFFFFFFFFFFFFFFFFFFFFFFFFF80FF6F
:1070B000E8FFE0FFFFFFFFFFFFFFFFFFFFFFFFFF16
:1070C000FFFFFFFFFFFFFCFFFFFFFFFFFFFFFFFFD3
:1070D000FFFFFFFFFFFFFFFFFFFF8CFFEDFFFFFF45
:1070E000FFFFFFFFFFFFFFFFFFFFFFFFFFFFFFFFB0
:1070F000E0FFFFFFFFFFFFFFFFFFFFFFFFFFFFFFBF
:10710000FFFFFFFFE0FFFFFFFFFFFFFFFFFFFFFFAE
:10711000FFFFFFFFFFFFFFFF89FF80FF82FFE0FF10
:10712000FFFFFFFFFFFFFFFFFFFFFFFFFFFFFFFF6F
:10713000FFFF90FFEAFFFFFFFFFFFFFFFFFFFFFFE3
:10714000FFFFFFFFFFFFFFFF86FFFCFFFFFFFFFFCB
:10715000FFFFFFFFFFFFFFFFFFFFFFFFFFFFE2FF5C
:10716000FFFFFFFFFFFFFFFFFFFFFFFFFFFFFFFF2F
:10717000FFFFE0FFFFFFFFFFFFFFFFFFFFFFFFFF3E
:10718000FFFFFFFFFFFFE0FFFFFFFFFFFFFFFFFF2E
:10719000FFFFFFFFFFFFFFFFFFFFE8FFE0FFFFFF35
:1071A000FFFFFFFFFFFFFFFFFFFFFFFFFFFFFFFFEF
:1071B000E0FFFFFFFFFFFFFFFFFFFFFFFFFFFFFFFE
:1071C000FFFFFFFF90FFEAFFFFFFFFFFFFFFFFFF53
:1071D000FFFFFFFFFFFFFFFFFFFF9BFFFCFFFFFF26
:1071E000FFFFFFFFFFFFFFFFFFFFFFFFFFFFFFFFAF
:1071F00080FFE1FFFFFFFFFFFFFFFFFFFFFFFFFF3C
:10720000FFFFFFFFFFFFE0FFFFFFFFFFFFFFFFFFAD
:10721000FFFFFFFFFFFFFFFFFFFFE0FFFFFFFFFF9D
:10722000FFFFFFFFFFFFFFFFFFFFFFFFFFFF84FFE9
:10723000E1FFFFFFFFFFFFFFFFFFFFFFFFFFFFFF7C
:10724000FFFFFFFF80FFE1FFFFFFFFFFFFFFFFFFEB
:10725000FFFFFFFFFFFFFFFFFFFFE2FFFFFFFFFF5B
:10726000FFFFFFFFFFFFFFFFFFFFFFFFFFFFE1FF4C
:10727000FFFFFFFFFFFFFFFFFFFFFFFFFFFFFFFF1E
:10728000FFFF82FFE1FFFFFFFFFFFFFFFFFFFFFFA9
:10729000FFFFFFFFFFFFFFFF88FF92FF8DFFEDFF66
:1072A000FFFFFFFFFFFFFFFFFFFFFFFFFFFFFFFFEE
:1072B000FFFFE3FFFFFFFFFFFFFFFFFFFFFFFFFFFA
:1072C000FFFFFFFFFFFFE0FFFFFFFFFFFFFFFFFFED
:1072D000FFFFFFFFFFFFFFFFFFFFC2FF87FF8DFFE5
:1072E000F8FFFFFFFFFFFFFFFFFFFFFFFFFFFFFFB5
:1072F000FFFFFFFFF5FFFFFFFFFFFFFFFFFFFFFFA8
:10730000FFFFFFFFFFFFFFFFFFFF92FFF5FFFFFF04
:10731000FFFFFFFFFFFFFFFFFFFFFFFFFFFFFFFF7D
:10732000FDFFFFFFFFFFFFFFFFFFFFFFFFFFFFFF6F
:10733000FFFFFFFFFFFFFFFFFFFFFFFFFFFFFFFF5D
:10734000FFFFFFFFFFFFFFFFC4FF87FF8DFFF8FF79
:10735000FFFFFFFFFFFFFFFFFFFFFFFFFFFFFFFF3D
:10736000FFFFF5FFFFFFFFFFFFFFFFFFFFFFFFFF37
:10737000FFFFFFFFFFFFFFFFB6FFA8FF81FFF0FF4A
:1073800080FF87FFE0FFFFFFFFFFFFFFFFFFFFFF23
:10739000FFFFFFFFFFFFFFFFE1FFFFFFFFFFFFFF1B
:1073A000FFFFFFFFFFFFFFFFFFFFFFFF80FFEAFF81
:1073B000FFFFFFFFFFFFFFFFFFFFFFFFFFFFFFFFDD
:1073C000FFFFF4FFA1FFE1FFFFFFFFFFFFFFFFFF54
:1073D000FFFFFFFFFFFFFFFFFFFFECFFE0FFFFFFEF
:1073E000FFFFFFFFFFFFFFFFFFFFFFFFFFFFFFFFAD
:1073F000E8FFB6FFA8FF81FFF0FF80FF87FFE0FFF7
:10740000FFFFFFFFFFFFFFFFFFFFFFFFFFFFFFFF8C
:10741000FFFFE1FFFFFFFFFFFFFFFFFFFFFFFFFF9A
:10742000FFFFFFFFFFFF89FF80FFFBFFFFFFFFFF65
:10743000FFFFFFFFFFFFFFFFFFFFFFFFFFFFF9FF62
:10744000FFFFFFFFFFFFFFFFFFFFFFFFFFFFFFFF4C
:10745000FFFFE0FFFFFFFFFFFFFFFFFFFFFFFFFF5B
:10746000FFFFFFFFFFFFEDFFFFFFFFFFFFFFFFFF3E
:10747000FFFFFFFFFFFFFFFFFFFFFBFFFFFFFFFF20
:10748000FFFFFFFFFFFFFFFFFFFFFFFFFFFFB5FF56
:10749000FBFFFFFFFFFFFFFFFFFFFFFFFFFFFFFF00
:1074A000FFFFFFFFB5FFE0FFFFFFFFFFFFFFFFFF55
:1074B000FFFFFFFFFFFFFFFFFFFF87FFE2FFFFFF71
:1074C000FFFFFFFFFFFFFFFFFFFFFFFFFFFFFFFFCC
:1074D000E0FFFFFFFFFFFFFFFFFFFFFFFFFFFFFFDB
:1074E000FFFFFFFFE2FFFFFFFFFFFFFFFFFFFFFFC9
:1074F000FFFFFFFFFFFFFFFF9AFFFFFFE1FFFFFF1F
:10750000FFFFFFFFFFFFFFFFFFFFFFFFFFFFFFFF8B
:10751000FFFFFFFFFFFFFFFFFFFFFFFFFFFFFFFF7B
:10752000FFFFFFFF87FFFEFFFFFFFFFFFFFFFFFFE4
:10753000FFFFFFFFFFFFFFFFFFFFF9FFFFFFFFFF61
:10754000FFFFFFFFFFFFFFFFFFFFFFFFFFFFFEFF4C
:10755000FFFFFFFFFFFFFFFFFFFFFFFFFFFFFFFF3B
:10756000FFFFE8FFE2FFFFFFFFFFFFFFFFFFFFFF5F
:10757000FFFFFFFFFFFFFFFFA8FFFFFFFFFFFFFF72
:10758000FFFFFFFFFFFFFFFFFFFFFFFFFFFF95FF75
:10759000FBFFFFFFFFFFFFFFFFFFFFFFFFFFFFFFFF
:1075A000FFFFFFFFA9FFFCFFFFFFFFFFFFFFFFFF44
:1075B000FFFFFFFFFFFFFFFFFFFFFFFFFFFFFFFFDB
:1075C000FFFFFFFFFFFFFFFFFFFFFFFFFFFFE0FFEA
:1075D000FFFFFFFFFFFFFFFFFFFFFFFFFFFFFFFFBB
:1075E000FFFFFCFFFFFFFFFFFFFFFFFFFFFFFFFFAE
:1075F000FFFFFFFFFFFF80FFF7FFFFFFFFFFFFFF22
:10760000FFFFFFFFFFFFFFFFFFFFFFFF80FFEDFF1B
:10761000FFFFFFFFFFFFFFFFFFFFFFFFFFFFFFFF7A
:10762000FFFF80FFEDFFFFFFFFFFFFFFFFFFFFFFFB
:10763000FFFFFFFFFFFFFFFF89FF80FF82FF87FF44
:10764000E0FFFFFFFFFFFFFFFFFFFFFFFFFFFFFF69
:10765000FFFFFFFFFCFFFFFFFFFFFFFFFFFFFFFF3D
:10766000FFFFFFFFFFFFFFFFB7FFA8FF80FF84FFC3
:10767000E0FFFFFFFFFFFFFFFFFFFFFFFFFFFFFF39
:10768000FFFFFFFFEDFFFFFFFFFFFFFFFFFFFFFF1C
:10769000FFFFFFFFFFFFFFFF8FFFEDFFFFFFFFFF7C
:1076A000FFFFFFFFFFFFFFFFFFFFFFFFFFFF85FF64
:1076B000FCFFFFFFFFFFFFFFFFFFFFFFFFFFFFFFDD
:1076C000FFFFFFFF82FFF7FFFFFFFFFFFFFFFFFF4F
:1076D000FFFFFFFFFFFFFFFFFFFF82FFEDFFFFFF49
:1076E000FFFFFFFFFFFFFFFFFFFFFFFFFFFFFFFFAA
:1076F00082FFEDFFFFFFFFFFFFFFFFFFFFFFFFFF29
:10770000FFFFFFFFFFFF89FF80FFFBFFFFFFFFFF82
:10771000FFFFFFFFFFFFFFFFFFFFFFFFFFFFF9FF7F
:10772000FFFFFFFFFFFFFFFFFFFFFFFFFFFFFFFF69
:10773000FFFFFCFFFFFFFFFFFFFFFFFFFFFFFFFF5C
:10774000FFFFFFFFFFFF87FF8EFFEBFFFFFFFFFF46
:10775000FFFFFFFFFFFFFFFFFFFFFFFFFFFFE0FF58
:10776000FFFFFFFFFFFFFFFFFFFFFFFFFFFFFFFF29
:10777000FFFFFFFFFFFFFFFFFFFFFFFFFFFFFFFF19
:10778000FFFFFFFFFFFFE0FFFFFFFFFFFFFFFFFF28
:10779000FFFFFFFFFFFFFFFFFFFFB7FFFBFFFFFF45
:1077A000FFFFFFFFFFFFFFFFFFFFFFFFFFFFFFFFE9
:1077B000F2FFFFFFFFFFFFFFFFFFFFFFFFFFFFFFE6
:1077C000FFFFFFFFFBFFFFFFFFFFFFFFFFFFFFFFCD
:1077D000FFFFFFFFFFFFFFFFF9FFFFFFFFFFFFFFBF
:1077E000FFFFFFFFFFFFFFFFFFFFFFFFFBFFFFFFAD
:1077F000FFFFFFFFFFFFFFFFFFFFFFFFFFFFFFFF99
:10780000FFFFFFFFFFFFFFFFFFFFFFFFFFFFFFFF88
:10781000FFFFFFFFE3FFFFFFFFFFFFFFFFFFFFFF94
:10782000FFFFFFFFFFFFFFFFEDFFFFFFFFFFFFFF7A
:10783000FFFFFFFFFFFFFFFFFFFFFFFFE0FFFFFF77
:10784000FFFFFFFFFFFFFFFFFFFFFFFFFFFFFFFF48
:10785000E8FFFBFFFFFFFFFFFFFFFFFFFFFFFFFF53
:10786000FFFFFFFFFFFFF9FFFFFFFFFFFFFFFFFF2E
:10787000FFFFFFFFFFFFFFFFFFFFFDFFFFFFFFFF1A
:10788000FFFFFFFFFFFFFFFFFFFFFFFFFFFFF8FF0F
:10789000FFFFFFFFFFFFFFFFFFFFFFFFFFFFFFFFF8
:1078A000FFFFFEFFFFFFFFFFFFFFFFFFFFFFFFFFE9
:1078B000FFFFFFFFFFFFA8FF8DFFF8FFFFFFFFFFA8
:1078C000FFFFFFFFFFFFFFFFFFFFFFFFFFFFF5FFD2
:1078D000FFFFFFFFFFFFFFFFFFFFFFFFFFFFFFFFB8
:1078E000FFFFFFFF8DFFE5FFFFFFFFFFFFFFFFFF34
:1078F000FFFFFFFFFFFFFFFFFFFF8CFFE5FFFFFF25
:10790000FFFFFFFFFFFFFFFFFFFFFFFFFFFFFFFF87
:10791000E0FFFFFFFFFFFFFFFFFFFFFFFFFFFFFF96
:10792000FFFFFFFF83FFFCFFFFFFFFFFFFFFFFFFE6
:10793000FFFFFFFFFFFFFFFFFFFFF9FFFFFFFFFF5D
:10794000FFFFFFFFFFFFFFFFFFFFFFFFFFFFF5FF51
:10795000FFFFFFFFFFFFFFFFFFFFFFFFFFFFFFFF37
:10796000FFFFFFFFE2FFFFFFFFFFFFFFFFFFFFFF44
:10797000FFFFFFFFFFFFFFFFFFFFFFFFFFFFFFFF17
:10798000FFFFFFFFFFFFFFFFFFFFFFFFFDFFFFFF09
:10799000FFFFFFFFFFFFFFFFFFFFFFFFFFFFFFFFF7
:1079A000FFFFFFFFFFFFFFFFFFFFFFFFFFFFFFFFE7
:1079B000FFFFFFFFFDFFFFFFFFFFFFFFFFFFFFFFD9
:1079C000FFFFFFFFFFFFFFFFE5FFFFFFFFFFFFFFE1
:1079D000FFFFFFFFFFFFFFFFFFFFFFFF8CFFE5FF44
:1079E000FFFFFFFFFFFFFFFFFFFFFFFFFFFFFFFFA7
:1079F000FFFFE0FFFFFFFFFFFFFFFFFFFFFFFFFFB6
:107A0000FFFFFFFFFFFF83FFF2FFFAFFFFFFFFFF14
:107A1000FFFFFFFFFFFFFFFFFFFFFFFFFFFF81FFF4
:107A2000F1FFFCFFFFFFFFFFFFFFFFFFFFFFFFFF77
:107A3000FFFFFFFFFFFFB7FFFCFFFFFFFFFFFFFFA1
:107A4000FFFFFFFFFFFFFFFFFFFFFFFFFFFFFFFF46
:107A5000FFFFFFFFFFFFFFFFFFFFFFFFFFFFFFFF36
:107A6000F3FFFFFFFFFFFFFFFFFFFFFFFFFFFFFF32
:107A7000FFFFFFFFFFFF81FF87FFFCFFFFFFFFFF0F
:107A8000FFFFFFFFFFFFFFFFFFFFFFFFFFFFE0FF25
:107A9000FFFFFFFFFFFFFFFFFFFFFFFFFFFFFFFFF6
:107AA000FFFFE0FFFFFFFFFFFFFFFFFFFFFFFFFF05
:107AB000FFFFFFFFFFFFFFFFFFFFFFFFFFFFFFFFD6
:107AC000FFFFFFFFFFFFFFFFFFFFEFFFA8FFE0FF4C
:107AD000FFFFFFFFFFFFFFFFFFFFFFFFFFFFFFFFB6
:107AE000FFFFEBFFFFFFFFFFFFFFFFFFFFFFFFFFBA
:107AF000FFFFFFFFFFFF8CFFEDFFFFFFFFFFFFFF1B
:107B0000FFFFFFFFFFFFFFFFFFFFFFFFFBFFFFFF89
:107B1000FFFFFFFFFFFFFFFFFFFFFFFFFFFFFFFF75
:107B2000F9FFFFFFFFFFFFFFFFFFFFFFFFFFFFFF6B
:107B3000FFFFFFFFFDFFFFFFFFFFFFFFFFFFFFFF57
:107B4000FFFFFFFFFFFFFFFFF8FFFFFFFFFFFFFF4C
:107B5000FFFFFFFFFFFFFFFFFFFFFFFFF5FFFFFF3F
:107B6000FFFFFFFFFFFFFFFFFFFFFFFFFFFFFFFF25
:107B7000FFFFFDFFFFFFFFFFFFFFFFFFFFFFFFFF17
:107B8000FFFFFFFFFFFFFFFFFFFFFFFFFFFFFFFF05
:107B9000FFFFFFFFFFFFFFFFFFFF80FF87FFE3FF08
:107BA000FFFFFFFFFFFFFFFFFFFFFFFFFFFFFFFFE5
:107BB000FFFFE4FFFFFFFFFFFFFFFFFFFFFFFFFFF0
:107BC000FFFFFFFFFFFFE0FFFFFFFFFFFFFFFFFFE4
:107BD000FFFFFFFFFFFFFFFFFFFFFAFFFFFFFFFFBA
:107BE000FFFFFFFFFFFFFFFFFFFFFFFFFFFF81FF23
:107BF000F1FFFCFFFFFFFFFFFFFFFFFFFFFFFFFFA6
:107C0000FFFFFFFFFFFFB7FFFCFFFFFFFFFFFFFFCF
:107C1000FFFFFFFFFFFFFFFFFFFFFFFFFFFFFFFF74
:107C2000FFFFFFFFFFFFFFFFFFFFFFFFFFFFFFFF64
:107C3000E2FFFFFFFFFFFFFFFFFFFFFFFFFFFFFF71
:107C4000FFFFFFFFE0FFFFFFFFFFFFFFFFFFFFFF63
:107C5000FFFFFFFFFFFFFFFF90FF87FF81FFEDFFAB
:107C6000FFFFFFFFFFFFFFFFFFFFFFFFFFFFFFFF24
:107C7000FFFFC2FF87FF80FFEDFFFFFFFFFFFFFF5A
:107C8000FFFFFFFFFFFFFFFFFFFFFFFFE6FFFFFF1D
:107C9000FFFFFFFFFFFFFFFFFFFFFFFFFFFFFFFFF4
:107CA000F5FFFFFFFFFFFFFFFFFFFFFFFFFFFFFFEE
:107CB000FFFFFFFF8EFFEAFFFFFFFFFFFFFFFFFF5A
:107CC000FFFFFFFFFFFFFFFFFFFFE0FFFFFFFFFFE3
:107CD000FFFFFFFFFFFFFFFFFFFFFFFFFFFFE0FFD3
:107CE000FFFFFFFFFFFFFFFFFFFFFFFFFFFFFFFFA4
:107CF000FFFF93FFE2FF8EFFFEFFFFFFFFFFFFFF8F
:107D0000FFFFFFFFFFFFFFFFFFFFFFFFE6FFFFFF9C
:107D1000FFFFFFFFFFFFFFFFFFFFFFFFFFFFFFFF73
:107D200087FF8BFFEDFFFFFFFFFFFFFFFFFFFFFF61
:107D3000FFFFFFFFFFFFFFFFE0FFFFFFFFFFFFFF72
:107D4000FFFFFFFFFFFFFFFFFFFFFFFFEDFFFFFF55
:107D5000FFFFFFFFFFFFFFFFFFFFFFFFFFFFFFFF33
:107D6000C0FF87FF80FFEDFFFFFFFFFFFFFFFFFF6B
:107D7000FFFFFFFFFFFFFFFFFFFF83FFEDFFFFFFA1
:107D8000FFFFFFFFFFFFFFFFFFFFFFFFFFFFFFFF03
:107D9000E4FF87FF82FFEDFFFFFFFFFFFFFFFFFF15
:107DA000FFFFFFFFFFFFFFFFFFFF81FF87FF8BFF4D
:107DB000EDFFFFFFFFFFFFFFFFFFFFFFFFFFFFFFE5
:107DC000FFFFFFFFE4FF87FF82FFEDFFFFFFFFFFE5
:107DD000FFFFFFFFFFFFFFFFFFFFFFFFFFFFE0FFD2
:107DE000FFFFFFFFFFFFFFFFFFFFFFFFFFFFFFFFA3
:107DF000FFFFEDFFFFFFFFFFFFFFFFFFFFFFFFFFA5
:107E0000FFFFFFFFFFFFE4FF87FF80FFEDFFFFFFA6
:107E1000FFFFFFFFFFFFFFFFFFFFFFFFFFFFFFFF72
:107E2000E0FFFFFFFFFFFFFFFFFFFFFFFFFFFFFF81
:107E3000FFFFFFFFE0FFFFFFFFFFFFFFFFFFFFFF71
:107E4000FFFFFFFFFFFFFFFF90FF87FF81FFEDFFB9
:107E5000FFFFFFFFFFFFFFFFFFFFFFFFFFFFFFFF32
:107E6000FFFFC4FF87FF80FFEDFFFFFFFFFFFFFF66
:107E7000FFFFFFFFFFFFFFFFFFFFFFFF89FF80FF07
:107E8000C5FFC2FFF3FFFFFFFFFFFFFFFFFFFFFF85
:107E9000FFFFFFFFFFFFFFFF87FFF3FFB7FF81FF3C
:107EA00087FFF3FFB7FFF9FFFFFFFFFFFFFFFFFFB4
:107EB000FFFFFFFFFFFFFFFFFFFFA9FFFCFFFFFF2B
:107EC000FFFFFFFFFFFFFFFFFFFFFFFFFFFFFFFFC2
:107ED000E0FFFFFFFFFFFFFFFFFFFFFFFFFFFFFFD1
:107EE000FFFFFFFF86FF87FFE0FFFFFFFFFFFFFFB2
:107EF000FFFFFFFFFFFFFFFFFFFFFFFFF8FFC5FFD3
:107F0000CAFFF7FFFFFFFFFFFFFFFFFFFFFFFFFFBE
:107F1000FFFFFFFFFFFFE0FFFFFFFFFFFFFFFFFF90
:107F2000FFFFFFFFFFFFFFFFFFFF84FFF8FFE0FF02
:107F3000FFFFFFFFFFFFFFFFFFFFFFFFFFFFFFFF51
:107F4000FFFFC2FF80FFF6FFFFFFFFFFFFFFFFFF06
:107F5000FFFFFFFFFFFFFFFFFFFF81FFE8FFE0FFE5
:107F6000FFFFFFFFFFFFFFFFFFFFFFFFFFFFFFFF21
:107F7000FFFF80FFFBFFFFFFFFFFFFFFFFFFFFFF94
:107F8000FFFFFFFFFFFFFFFFF9FFFFFFFFFFFFFF07
:107F9000FFFFFFFFFFFFFFFFFFFFFFFFFCFFFFFFF4
:107FA000FFFFFFFFFFFFFFFFFFFFFFFFFFFFFFFFE1
:107FB000F8FFE0FFFFFFFFFFFFFFFFFFFFFFFFFFF7
:107FC000FFFFFFFFFFFFC8FFE2FFFFFFFFFFFFFF15
:0D7FD000FFFFFFFFFFFFFFFFFFFFFFFF822E
:020000040030CA
:0E000000FFFFFFFFFFFFFFFFFFFFFFEDFFF918
:00000001FF
