:020000040000FA
:06000000A8EF08F0120059
:02002A000000D4
:04002C009290929686
:100030009294929294929494936A809080968094F1
:10004000809282928294816A0F0EC16E070EB46E06
:10005000CA6ECC6ACB680C0EBD6EBA6EBE6ABB6847
:100060000001090EEB6FE96BE46B030EE56F800E88
:10007000F76FE86BE76B1200060E0001FA5D15E3FF
:100080006D50020B01E012000001E75102E156EF52
:1000900000F049D9000901E0120004D9000901E18A
:1000A000120020DA000901E05DD812000001E851D9
:1000B0000C0A54E0070A48E0010A41E0030A3AE06A
:1000C000010A33E00F0A2CE0010A25E0030A1CE0D4
:1000D000010A15E0070A0EE0010A07E0030A03E03F
:1000E000010A3AE012003C0E13D01DD9000939E193
:1000F000140E0ED018D9000934E10C0E09D013D912
:1001000000092FE1010E04D00ED900092AE1020EE8
:10011000E66E4CD91FD007D9000923E14D0E18D047
:1001200002D900091EE1610E13D0FDD8000919E1C2
:10013000640E0ED0F8D8000914E1440E09D0F3D8AB
:1001400000090FE14F0E04D0EED800090AE1430E7A
:10015000E66E59D9E5520001E82B1200010EE76F57
:10016000E56F12000001E951630A61E0010A5DE0F8
:100170006E0A52E0070A4DE0010A48E0030A43E034
:10018000010A3EE00F0A39E0010A34E0030A2FE0D9
:10019000010A2AE0070A1DE0010A18E0030A14E038
:1001A000010A01E012006251026E036AFE0E02189B
:1001B00001E1035005E062C0E6FF25D9E5521200D7
:1001C000FE0E626FE85031E119EF01F062C0ECF011
:1001D0002CD062C0EDF062C0E6FFECC0E6FF45D96E
:1001E000E552E552000123D062C0EEF01ED062C09D
:1001F000EFF01BD062C0F0F018D062C0F1F015D063
:1002000062C0F2F012D062C0F3F00FD062C0F4F01E
:100210000CD062C0F5F009D062C0F6F0EB6BE96B70
:10022000E5C0E4F0030EE56F1200E92B1200E96B64
:10023000120000016251990A31E0010A2FE0090A17
:100240002AE0F70A25E03E0A1BE00F0A17E0010A40
:1002500015E0060A20E01E0A0FE0060A11E00F0A68
:1002600009E0010A05E0040A1BE1F7C0BBFF06D064
:10027000BB6A16D0020E0DD0040E0BD0630E09D04F
:10028000010EE56F800EE66E91D8E552000108D0B0
:10029000620EE96F120062C0BEFF02D062C0BBFFF7
:1002A000E96B12000001EB51090A3BE0010A30E062
:1002B0000F0A27E0010A22E0030A1DE0010A18E004
:1002C000070A13E0010A0EE0030A09E0010A2AE125
:1002D000080EEE03F350400FE66E68D815D0EFC05D
:1002E000E6FF11D0F0C0E6FF0ED0F1C0E6FF0BD064
:1002F000F2C0E6FF08D0F3C0E6FF05D0F4C0E6FF89
:1003000002D0F5C0E6FF7FD8E5520001EB2B000CD0
:10031000F6C0E6FF78D8E5520001EB2BE4C0E5F02B
:10032000000C010C000C816A0001E66B936880945C
:1003300080820000000000008080000000000000BB
:1003400000000000000000000000000000000000AD
:10035000000081CFE6F08090000000000000808661
:10036000000000000000000000000000000000008D
:10037000000000000000000081500001E613936AB5
:10038000809080960000000080920001E651026E8D
:10039000036AD890035004E6800E025C000E0358F6
:1003A00002E2000E02D0010E00D01200D9CFE6FF0B
:1003B000E1CFD9FF809480920001E551030A09E062
:1003C000010A05E0030A01E007D0808005D080869D
:1003D00003D08080808600D0FE0EDB50816E00004E
:1003E000000000000000000000000000000000000D
:1003F0000000000000000000000080908096E552A0
:10040000E7CFD9FF1200D9CFE6FFE1CFD9FF808433
:10041000809200000000000000000001E551030A86
:1004200009E0010A05E0030A01E007D0808005D059
:10043000808603D08080808600D0FE0EDB50816EE7
:1004400000000000000000000000000000000000AC
:100450000000000000000000809080960000000076
:100460008094E552E7CFD9FF1200D9CFE6FFE1CF64
:10047000D9FFFD0EDB50040A11E0070A0CE0010A67
:1004800005E0030A10E100017F0E02D00001BF0E5B
:10049000F96F010E07D000017F0E02D00001BF0EE0
:1004A000F96F020EE56FFE0EDB500001F927F9C06F
:1004B000E6FF7CDFE552E552E7CFD9FF1200400EA0
:1004C000E66E630EE66E000EE66E0BEC03F0E55290
:1004D000E552E552000905E000C161F00001606BE2
:1004E000010C000C00016051D880615506E3E7DF84
:1004F000000901E1000C0001606B6051EA6A630FC2
:0E050000E96E000EEA22EFCF62F0602B010CD4
:02050E000401E6
:1005100020511F0B010801E012002051600BE8423E
:10052000E842E842E842E842010801E012002451B2
:1005300003E0240501E012002151230A43E0010AEF
:100540003BE0030A2BE0010A20E0240A3BE0070A13
:1005500039E0010A37E0030A10E0010A01E0120065
:100560000101030E266F0101130E276F010E286F84
:100570000001FB930101080E1DD00101030E266F3F
:100580000101130E296F010E07D00101030E266F22
:100590000101080E296F010E2A6F12000101030EDE
:1005A000266F0101080E276F010E286F0001FB93D3
:1005B0000101070E2B6F12000101030E266F22C4EA
:1005C0000FF1120012000101086BC20E096F010E3B
:1005D0000A6F0B6B0C6B0D6B080E0E6F016B006BD3
:1005E0001A0E726E1E0E736E0401000E166F050E4B
:1005F000176F400E146F0401196F080E1A6F050E65
:100600001B6F880E186F0401480E1E6F050E1F6FBA
:10061000400E1C6F1200D9CFE6FFE1CFD9FF0101D8
:10062000006B040118BF30D0FC0EDBCF02F0195173
:10063000D880025403E2FC0E19C4DBFF0101006BF9
:10064000FC0EDB50005D19E20051EA6A080FE96E0A
:10065000050EEA22EF50E66E0051E76EFD0EDBCF8D
:10066000E9FFFE0EDBCFEAFFE750E926000EEA22A3
:10067000E552E750EF6E002BE3D70401400E196FEF
:100680001817187D880E181301010051E552E7CFA5
:10069000D9FF1200D9CFE6FFE1CFD9FFE652010121
:1006A00001512EE1DF6ADF2ADF50026E036AFF0E7E
:1006B000021802E103500BE0FD0EDBCFE9FFDB2A5D
:1006C000FE0EDBCFEAFF01E3DB2AEF50ECE1DF5067
:1006D000026E036AD950FD0FE96EFF0EDA20EA6E52
:1006E0000250EE5E0350ED5AFD0EDBCF02F1FE0E1E
:1006F000DBCF03F1DFCF06F10101076B010E016FC4
:10070000E552E552E7CFD9FF1200D9CFE6FFE1CF9E
:10071000D9FFE652010101512FE1DF6ADF2ADF50E4
:10072000026E036AFF0E021802E103500CE0FD0E98
:10073000DBCFF6FFDB2AFE0EDBCFF7FF01E3DB2A80
:100740000800F550EBE1DF50026E036AD950FD0F4F
:10075000E96EFF0EDA20EA6E0250EE5E0350ED5AAB
:10076000FD0EDBCF02F1FE0EDBCF03F1DFCF06F192
:100770000101010E076F016FE552E552E7CFD9FF86
:100780001200D9CFE6FFE1CFD9FFE65204011CBF2A
:1007900066D0030E0101015D01E1016B01515FE0D3
:1007A000020E015D03E104011D6B50D0010551E112
:1007B000400E026E036A0651025C000E035803E20B
:1007C000400EDF6E02D006C1DFFFDFCF1DF4DF5029
:1007D000065D066F480E046F050E056F070514E1F0
:1007E000DF5025E002C1F6FF03C1F7FF0800F55016
:1007F00004C1E9FF05C1EAFFEF6E042B000E0523DB
:10080000022B0323DF06ECD7DF5011E002C1E9FF22
:1008100003C1EAFFEF5004C1E9FF05C1EAFFEF6E33
:10082000042B000E0523022B0323DF06EDD7010165
:1008300006510FE104011D51026E036A400E0218B9
:1008400005E1035003E10101020E02D00101030E94
:10085000016F400E04011C171C7D880E1C13E5520D
:08086000E552E7CFD9FF1200B9
:080868006C5002E0000E01D00B
:10087000010E00090BE0040100513C0BE842E84284
:100880000D0802E14FEF04F084EF04F06C5002E039
:10089000000E01D0010E040901E045D81200D9CFA5
:1008A000E6FFE1CFD9FFE6520101256B266B2B6BEA
:1008B0002C6BABEC05F0DF6ADF50026E036A010EB1
:1008C000025C000E03581AE20101265117E1F76A93
:1008D000DF34FE0BF736F66E810EF626100EF72289
:1008E0000900F5CF02F00800F5CF03F004D003C0F3
:1008F000FAFF0250F96EFBDFDF2ADED7D9D8E552C6
:10090000E552E7CFD9FF1200020E0101255D09E192
:1009100092D8040100BD02D0C80E01D0880E006F2D
:1009200012009DEF05F0040E0001FA5D09E122C4FA
:100930006EFF6E50000802E2050E01D0030EFA6F42
:100940000101250509E10AD8040104BD02D0C80E41
:1009500001D0880E046F12009DEF05F0D9CFE6FF9D
:10096000E1CFD9FF020EE1260101080E2B5D000E3A
:100970002C5905E22BC1DEFF2CC1DDFF03D0080E90
:10098000DE6EDD6A040104930491010EDB50041352
:10099000DFCF05F4000EDB5001012B5F010EDB50B1
:1009A0002C5B280E296F040E2A6F0001FBA31DD0BB
:1009B000D9CFE9FFDACFEAFFEE50ED1032E027C1E0
:1009C000F6FF28C1F7FF0800F55029C1E9FF2AC149
:1009D000EAFFEF6E0101292B000E2A23272B282383
:1009E000DF06010EE5E2DB06E3D7D9CFE9FFDACF78
:1009F000EAFFEE50ED1015E027C1E9FF28C1EAFF3C
:100A0000EF5029C1E9FF2AC1EAFFEF6E0101292B4E
:100A1000000E2A23272B2823DF06010EE6E2DB0641
:100A2000E4D7020EE15C02E2E16AE552E16EE552D2
:100A3000E7CFD9FF1200D9CFE6FFE1CFD9FF020EF1
:100A4000E126030E04010015E76E010EE7CFDBFF80
:100A500001C4DFFFDE5001012B27DD502C23280EBF
:100A6000276F040E286FD9CFE9FFDACFEAFFEE50E7
:100A7000ED1014E027C1E9FF28C1EAFFEF5029C1BA
:100A8000E9FF2AC1EAFFEF6E292B000E2A23272B4C
:100A90002823DF06010EE7E2DB06E5D7020EE15C64
:100AA00002E2E16AE552E16EE552E7CFD9FF1200BA
:100AB000010126510BE10401080E016F200E026FA7
:100AC000040E036F840E006F040123D0040120AFD5
:100AD00022D001012B510401265D01012C5104019A
:100AE000275904E226C42BF127C42CF137DF01017A
:100AF000010E256F0401080E016F200E026F040E17
:100B0000036F800E006F0401280E066F040E076F3E
:100B1000C80E046F10D00101020E256F0401056B91
:100B2000C80E046F0401080E016F280E026F040E38
:100B3000036FC80E006F6D9812000101256B040150
:100B4000080E016F200E026F040E036F880E006FF7
:060B50000401046B120019
:0A0B560004012051600BE842E84260
:100B6000E842E842E842000901E012002151070A88
:100B70004CE00B0A4AE0070A3BE0010A27E00B0AB7
:100B800023E0020A21E0030A1DE0080A12E0010A3C
:100B90000EE00F0A0AE0030A01E012000101010E53
:100BA000266F0001040EFA6F120006EF06F05DEFEB
:100BB00006F00101010E266F0101FC0E276F000EE9
:100BC000286F10D084EF06F0CFEF06F00101010E80
:100BD000266F040124510101276F286BFD0E272782
:100BE000000E28230001FB930101010E2B6F120060
:100BF0000101010E266F04012451EA6AFD0FE96E1E
:100C0000000EEA2222C4EFFF12001200800E04013F
:100C1000205D52E12351030A30E0010A0CE0030A8F
:100C200049E10101010E266F0101B60E276F0F0E7B
:100C3000286F120E3CD00101010E266F04012251D3
:100C4000F66EF76AD890F636F736770EF626100E5F
:100C5000F7220900F5CF27F10A00F5CF28F1020E9F
:100C60000101F76A2725F66E2851F7220900F5CF12
:100C70002BF10A00F5CF2CF11DD00101010E266FDA
:100C800004012251F66EF76AD890F636F7367B0EDD
:100C9000F626100EF7220900F5CF27F10A00F5CF4E
:100CA00028F127C1F6FF28C1F7FF0800F550010120
:100CB0002B6F2C6B0001FB8312000101010E266FCC
:100CC0000F0EE66E710EE66E0F0EE66EC6EC07F0C6
:100CD000E552E552E552010EE66EFD0EE66E000E9F
:100CE000E66EC6EC07F0E552E552E55222C4FCF090
:100CF0000401225104E10001050EFA6F1200000107
:100D0000060EFA6FE3EF02F00401286B296B040171
:100D100020511F0B020A13E0030A0DE0010A31E122
:100D20000101010E266F040128810001FBA129D0D9
:100D30000401288326D00101010E266F22D0010173
:100D4000010E266F040124510F0B080DF350036AA6
:100D5000000F026E040E03222451800B01E0010EED
:100D6000040DF35001010224296F000E03202A6FA5
:100D700029C1E9FFEA6EEF50040B03E00401010E04
:100D8000286F010126050AE10101280E276F040ED4
:100D9000286F0001FB930101020E2B6F120004016A
:100DA000220510E120511F0B00090CE10101010E89
:100DB000266F030E0401215D03E10001FB8102D0D7
:100DC0000001FB91040122513AE120511F0B02085E
:100DD00036E124510F0B000932E00101010E266FAC
:100DE000040124510F0B080DF350036A000F026E2B
:100DF000040E03222451800B01E0010E040DF35078
:100E000001010224296F000E03202A6F030E040142
:100E1000215D07E1840E29C1E9FF2AC1EAFFEF6ED7
:100E2000120024AF06D029C1E9FF2AC1EAFFEF6A08
:100E30001200880E29C1E9FF2AC1EAFFEF6E1200F5
:100E40006DA60CD80001FA0508E16DBA06D0686AF3
:100E5000696A69806988020EFA6F12006D6A696AB0
:100E60006D860001010EFA6F12006D6A696A000159
:100E7000FA6B120035EF07F00001FA5101E11200A0
:100E80006850040B04E06950040B01E03CD86DB2DB
:100E900012006850010B04E06950010B01E054D8C6
:100EA0006850100B04E06950100B01E024D8685022
:100EB000400B04E06950400B01E03BD86850200B28
:100EC00004E06950200B01E036D86850020B04E0C2
:100ED0006950020B01E036D8030E0001FA5D01E211
:100EE00012006850080B06E06950080B03E034EC70
:100EF00004F068961200698468986D82A19AA08AAD
:100F00000300A09A12006D92699468941200000187
:100F1000FBA10ED0F8DF6D840001080EFE6F070EF6
:100F2000FF6FFE07000EFF5BFE51FF11FAE16D94AB
:100F30001200689C120070A003D09DEC05F0709028
:100F4000689A1200689212006A6A686A9F0E6B6E55
:100F50007B0E696E6E6A0F0EE66E710EE66E0F0EF8
:100F6000E66E14D8E552E552E552160E706E68A68C
:100F700002D06896FCD76D989DEC05F00001FB91BE
:100F80000001FC6B0001030EFA6F1200D9CFE6FFDF
:100F9000E1CFD9FFFD0EDBCFE9FFFE0EDBCFEAFF8D
:100FA000FC0EDB5004E0EE6AFC0EDB06F9D7E552DE
:060FB000E7CFD9FF12009B
:0A0FB6001201000202000008D80436
:100FC0000A00000001020001090243000201008042
:100FD000320904000001020201000524001001048E
:100FE00024020205240600010524010001070582F0
:100FF0000308000209040100020A000000070503BB
:101000000240000007058302400000040309043485
:10101000034D006900630072006F0063006800699F
:10102000007000200054006500630068006E006FCF
:10103000006C006F0067007900200049006E0063BB
:10104000002E0034034300440043002000520053AC
:10105000002D00320033003200200045006D007585
:10106000006C006100740069006F006E0020004495
:101070000065006D006F00C80FC80F0B100F104304
:03108000100E054A
:0C1084002A0EF66E000EF76E000EF86EDD
:1010900001010900F550206F0900F550216F03E1AF
:1010A000206701D03DD00900F5501B6F0900F550B5
:1010B0001C6F0900F5501D6F09000900F550E96E1D
:1010C0000900F550EA6E090009000900F5501E6F8D
:1010D0000900F5501F6F09000900F6CF22F1F7CF84
:1010E00023F1F8CF24F11BC1F6FF1CC1F7FF1DC18E
:1010F000F8FF01011E5302E11F5307E00900F550FC
:10110000EE6E1E07F8E21F07F9D722C1F6FF23C1D2
:10111000F7FF24C1F8FF01012007000E215BBFD7B4
:021120001200BB
:0E11220004D80FD83CEC00F0FCD70F0EC11221
:10113000140E6F6E0001FA6B0001FB6B0001FC6B7B
:1011400016EF00F020EC07F03CEC07F0C1EF03F0E5
:1011500013EE00F023EE00F0F86A019C42EC08F078
:0811600091EC08F0FDD712002C
:00000001FF
